{"abi":[{"type":"constructor","inputs":[{"name":"_priceOracle","type":"address","internalType":"address"}],"stateMutability":"nonpayable"},{"type":"function","name":"authorizedZkTokens","inputs":[{"name":"","type":"address","internalType":"address"}],"outputs":[{"name":"","type":"bool","internalType":"bool"}],"stateMutability":"view"},{"type":"function","name":"getPriceOracle","inputs":[],"outputs":[{"name":"oracle","type":"address","internalType":"address"}],"stateMutability":"view"},{"type":"function","name":"getTotalCollateral","inputs":[{"name":"zkToken","type":"address","internalType":"address"}],"outputs":[{"name":"amount","type":"uint256","internalType":"uint256"}],"stateMutability":"view"},{"type":"function","name":"getTotalCollateralValue","inputs":[{"name":"zkToken","type":"address","internalType":"address"},{"name":"decimals","type":"uint8","internalType":"uint8"}],"outputs":[{"name":"valueInUsd","type":"uint256","internalType":"uint256"}],"stateMutability":"view"},{"type":"function","name":"getUnderlyingToken","inputs":[{"name":"zkToken","type":"address","internalType":"address"}],"outputs":[{"name":"token","type":"address","internalType":"address"}],"stateMutability":"view"},{"type":"function","name":"getUnderlyingTokenPrice","inputs":[{"name":"zkToken","type":"address","internalType":"address"},{"name":"decimals","type":"uint8","internalType":"uint8"}],"outputs":[{"name":"priceInUsd","type":"uint256","internalType":"uint256"}],"stateMutability":"view"},{"type":"function","name":"isAuthorized","inputs":[{"name":"zkToken","type":"address","internalType":"address"}],"outputs":[{"name":"authorized","type":"bool","internalType":"bool"}],"stateMutability":"view"},{"type":"function","name":"lockCollateral","inputs":[{"name":"zkToken","type":"address","internalType":"address"},{"name":"amount","type":"uint256","internalType":"uint256"},{"name":"commitment","type":"bytes32","internalType":"bytes32"}],"outputs":[{"name":"success","type":"bool","internalType":"bool"}],"stateMutability":"nonpayable"},{"type":"function","name":"owner","inputs":[],"outputs":[{"name":"","type":"address","internalType":"address"}],"stateMutability":"view"},{"type":"function","name":"priceOracle","inputs":[],"outputs":[{"name":"","type":"address","internalType":"contract IPriceOracle"}],"stateMutability":"view"},{"type":"function","name":"registerZkToken","inputs":[{"name":"zkToken","type":"address","internalType":"address"},{"name":"underlyingToken","type":"address","internalType":"address"}],"outputs":[],"stateMutability":"nonpayable"},{"type":"function","name":"releaseCollateral","inputs":[{"name":"zkToken","type":"address","internalType":"address"},{"name":"recipient","type":"address","internalType":"address"},{"name":"amount","type":"uint256","internalType":"uint256"},{"name":"nullifier","type":"bytes32","internalType":"bytes32"}],"outputs":[{"name":"success","type":"bool","internalType":"bool"}],"stateMutability":"nonpayable"},{"type":"function","name":"renounceOwnership","inputs":[],"outputs":[],"stateMutability":"nonpayable"},{"type":"function","name":"setAuthorization","inputs":[{"name":"zkToken","type":"address","internalType":"address"},{"name":"authorized","type":"bool","internalType":"bool"}],"outputs":[],"stateMutability":"nonpayable"},{"type":"function","name":"setPriceOracle","inputs":[{"name":"_priceOracle","type":"address","internalType":"address"}],"outputs":[],"stateMutability":"nonpayable"},{"type":"function","name":"totalCollateral","inputs":[{"name":"","type":"address","internalType":"address"}],"outputs":[{"name":"","type":"uint256","internalType":"uint256"}],"stateMutability":"view"},{"type":"function","name":"transferOwnership","inputs":[{"name":"newOwner","type":"address","internalType":"address"}],"outputs":[],"stateMutability":"nonpayable"},{"type":"function","name":"underlyingTokens","inputs":[{"name":"","type":"address","internalType":"address"}],"outputs":[{"name":"","type":"address","internalType":"address"}],"stateMutability":"view"},{"type":"event","name":"CollateralLocked","inputs":[{"name":"commitment","type":"bytes32","indexed":true,"internalType":"bytes32"}],"anonymous":false},{"type":"event","name":"CollateralReleased","inputs":[{"name":"nullifier","type":"bytes32","indexed":true,"internalType":"bytes32"}],"anonymous":false},{"type":"event","name":"OwnershipTransferred","inputs":[{"name":"previousOwner","type":"address","indexed":true,"internalType":"address"},{"name":"newOwner","type":"address","indexed":true,"internalType":"address"}],"anonymous":false},{"type":"event","name":"PriceOracleUpdated","inputs":[{"name":"oldOracle","type":"address","indexed":true,"internalType":"address"},{"name":"newOracle","type":"address","indexed":true,"internalType":"address"}],"anonymous":false},{"type":"event","name":"ZkTokenAuthorized","inputs":[{"name":"zkToken","type":"address","indexed":true,"internalType":"address"},{"name":"authorized","type":"bool","indexed":false,"internalType":"bool"}],"anonymous":false},{"type":"event","name":"ZkTokenRegistered","inputs":[{"name":"zkToken","type":"address","indexed":true,"internalType":"address"},{"name":"underlyingToken","type":"address","indexed":true,"internalType":"address"}],"anonymous":false},{"type":"error","name":"InsufficientCollateral","inputs":[]},{"type":"error","name":"InvalidAddress","inputs":[]},{"type":"error","name":"OwnableInvalidOwner","inputs":[{"name":"owner","type":"address","internalType":"address"}]},{"type":"error","name":"OwnableUnauthorizedAccount","inputs":[{"name":"account","type":"address","internalType":"address"}]},{"type":"error","name":"ReentrancyGuardReentrantCall","inputs":[]},{"type":"error","name":"SafeERC20FailedOperation","inputs":[{"name":"token","type":"address","internalType":"address"}]},{"type":"error","name":"TransferFailed","inputs":[]},{"type":"error","name":"UnauthorizedZkToken","inputs":[]},{"type":"error","name":"ZkTokenAlreadyRegistered","inputs":[]},{"type":"error","name":"ZkTokenNotRegistered","inputs":[]}],"bytecode":{"object":"0x60806040523461002f576100196100146100f4565b6101c6565b610021610034565b611b976103f28239611b9790f35b61003a565b60405190565b5f80fd5b601f801991011690565b634e487b7160e01b5f52604160045260245ffd5b906100669061003e565b810190811060018060401b0382111761007e57604052565b610048565b9061009661008f610034565b928361005c565b565b5f80fd5b60018060a01b031690565b6100b09061009c565b90565b6100bc816100a7565b036100c357565b5f80fd5b905051906100d4826100b3565b565b906020828203126100ef576100ec915f016100c7565b90565b610098565b610112611f898038038061010781610083565b9283398101906100d6565b90565b90565b90565b61012f61012a61013492610115565b610118565b61009c565b90565b6101409061011b565b90565b61015761015261015c9261009c565b610118565b61009c565b90565b61016890610143565b90565b6101749061015f565b90565b5f1b90565b9061018d60018060a01b0391610177565b9181191691161790565b6101a09061015f565b90565b90565b906101bb6101b66101c292610197565b6101a3565b825461017c565b9055565b6101cf33610290565b806101ea6101e46101df5f610137565b6100a7565b916100a7565b036101f3575b50565b6101ff6102069161016b565b60026101a6565b5f6101f0565b90565b90565b61022661022161022b9261020c565b610118565b61020f565b90565b6102386001610212565b90565b906102475f1991610177565b9181191691161790565b61026561026061026a9261020f565b610118565b61020f565b90565b90565b9061028561028061028c92610251565b61026d565b825461023b565b9055565b610299906102cf565b6102ab6102a461022e565b6001610270565b565b6102b6906100a7565b9052565b91906102cd905f602085019401906102ad565b565b806102ea6102e46102df5f610137565b6100a7565b916100a7565b146102fa576102f890610392565b565b61031d6103065f610137565b5f918291631e4fbdf760e01b8352600483016102ba565b0390fd5b5f1c90565b60018060a01b031690565b61033d61034291610321565b610326565b90565b61034f9054610331565b90565b61035b90610143565b90565b61036790610352565b90565b90565b9061038261037d6103899261035e565b61036a565b825461017c565b9055565b5f0190565b61039b5f610345565b6103a5825f61036d565b906103d96103d37f8be0079c531659141344cd1fd0a4f28419497f9722a3daafe3b4186f6b6457e09361035e565b9161035e565b916103e2610034565b806103ec8161038d565b0390a356fe60806040526004361015610013575b61093b565b61001d5f3561013c565b80632630c12f14610137578063530e784f1461013257806360a98b801461012d578063691bcc88146101285780636b7c6d2014610123578063715018a61461011e578063728128cf14610119578063791f493e146101145780637e059b221461010f5780638da5cb5b1461010a578063b7f294a714610105578063cb387d9614610100578063e9b57673146100fb578063eb4b3e88146100f6578063eecea000146100f1578063f2fde38b146100ec578063fca513a8146100e75763fe9fbb800361000e57610906565b6108d1565b61089e565b61086a565b6107e5565b61074f565b61071b565b6106b9565b610629565b6105f4565b61055a565b6104cb565b610452565b61041c565b61033d565b6102e6565b61028e565b610207565b60e01c90565b60405190565b5f80fd5b5f80fd5b5f91031261015a57565b61014c565b1c90565b60018060a01b031690565b61017e906008610183930261015f565b610163565b90565b90610191915461016e565b90565b6101a060025f90610186565b90565b60018060a01b031690565b90565b6101c56101c06101ca926101a3565b6101ae565b6101a3565b90565b6101d6906101b1565b90565b6101e2906101cd565b90565b6101ee906101d9565b9052565b9190610205905f602085019401906101e5565b565b3461023757610217366004610150565b610233610222610194565b61022a610142565b918291826101f2565b0390f35b610148565b610245906101a3565b90565b6102518161023c565b0361025857565b5f80fd5b9050359061026982610248565b565b9060208282031261028457610281915f0161025c565b90565b61014c565b5f0190565b346102bc576102a66102a136600461026b565b610a50565b6102ae610142565b806102b881610289565b0390f35b610148565b90565b6102cd906102c1565b9052565b91906102e4905f602085019401906102c4565b565b34610316576103126103016102fc36600461026b565b610a80565b610309610142565b918291826102d1565b0390f35b610148565b6103249061023c565b9052565b919061033b905f6020850194019061031b565b565b3461036d5761036961035861035336600461026b565b610ac4565b610360610142565b91829182610328565b0390f35b610148565b61037b816102c1565b0361038257565b5f80fd5b9050359061039382610372565b565b90565b6103a181610395565b036103a857565b5f80fd5b905035906103b982610398565b565b90916060828403126103f0576103ed6103d6845f850161025c565b936103e48160208601610386565b936040016103ac565b90565b61014c565b151590565b610403906103f5565b9052565b919061041a905f602085019401906103fa565b565b3461044d576104496104386104323660046103bb565b91610d5d565b610440610142565b91829182610407565b0390f35b610148565b3461048057610462366004610150565b61046a610d98565b610472610142565b8061047c81610289565b0390f35b610148565b6080818303126104c65761049b825f830161025c565b926104c36104ac846020850161025c565b936104ba8160408601610386565b936060016103ac565b90565b61014c565b346104ff576104fb6104ea6104e1366004610485565b92919091610f75565b6104f2610142565b91829182610407565b0390f35b610148565b60ff1690565b61051381610504565b0361051a57565b5f80fd5b9050359061052b8261050a565b565b91906040838203126105555780610549610552925f860161025c565b9360200161051e565b90565b61014c565b3461058b5761058761057661057036600461052d565b90611046565b61057e610142565b918291826102d1565b0390f35b610148565b610599906101cd565b90565b906105a690610590565b5f5260205260405f2090565b90565b6105c59060086105ca930261015f565b6105b2565b90565b906105d891546105b5565b90565b6105f1906105ec6004915f9261059c565b6105cd565b90565b346106245761062061060f61060a36600461026b565b6105db565b610617610142565b918291826102d1565b0390f35b610148565b3461065957610639366004610150565b610655610644611177565b61064c610142565b91829182610328565b0390f35b610148565b9061066890610590565b5f5260205260405f2090565b60ff1690565b61068a90600861068f930261015f565b610674565b90565b9061069d915461067a565b90565b6106b6906106b16005915f9261065e565b610692565b90565b346106e9576106e56106d46106cf36600461026b565b6106a0565b6106dc610142565b91829182610407565b0390f35b610148565b9190604083820312610716578061070a610713925f860161025c565b9360200161025c565b90565b61014c565b3461074a5761073461072e3660046106ee565b9061137a565b61073c610142565b8061074681610289565b0390f35b610148565b346107805761077c61076b61076536600461052d565b9061147a565b610773610142565b918291826102d1565b0390f35b610148565b9061078f90610590565b5f5260205260405f2090565b60018060a01b031690565b6107b69060086107bb930261015f565b61079b565b90565b906107c991546107a6565b90565b6107e2906107dd6003915f92610785565b6107be565b90565b34610815576108116108006107fb36600461026b565b6107cc565b610808610142565b91829182610328565b0390f35b610148565b610823816103f5565b0361082a57565b5f80fd5b9050359061083b8261081a565b565b91906040838203126108655780610859610862925f860161025c565b9360200161082e565b90565b61014c565b346108995761088361087d36600461083d565b90611746565b61088b610142565b8061089581610289565b0390f35b610148565b346108cc576108b66108b136600461026b565b6117b7565b6108be610142565b806108c881610289565b0390f35b610148565b34610901576108e1366004610150565b6108fd6108ec6117c2565b6108f4610142565b91829182610328565b0390f35b610148565b346109365761093261092161091c36600461026b565b6117e0565b610929610142565b91829182610407565b0390f35b610148565b5f80fd5b6109509061094b6117ff565b6109df565b565b5f1c90565b61096361096891610952565b610163565b90565b6109759054610957565b90565b610981906101b1565b90565b61098d90610978565b90565b5f1b90565b906109a660018060a01b0391610990565b9181191691161790565b6109b990610978565b90565b90565b906109d46109cf6109db926109b0565b6109bc565b8254610995565b9055565b6109f16109ec600261096b565b6101d9565b610a046109fd83610984565b60026109bf565b90610a38610a327f56b5f80d8cac1479698aa7d01605fd6111e90b15fc4d2b377417f46034876cbd93610590565b91610590565b91610a41610142565b80610a4b81610289565b0390a3565b610a599061093f565b565b5f90565b610a6b610a7091610952565b6105b2565b90565b610a7d9054610a5f565b90565b610a97610a9c91610a8f610a5b565b50600461059c565b610a73565b90565b5f90565b610aaf610ab491610952565b61079b565b90565b610ac19054610aa3565b90565b610adb610ae091610ad3610a9f565b506003610785565b610ab7565b90565b5f90565b90610afb939291610af6611879565b610c10565b90610b046118fd565b565b610b12610b1791610952565b610674565b90565b610b249054610b06565b90565b90565b610b3e610b39610b4392610b27565b6101ae565b6101a3565b90565b610b4f90610b2a565b90565b610b5b906101b1565b90565b610b6790610b52565b90565b610b73906101cd565b90565b634e487b7160e01b5f52601160045260245ffd5b610b99610b9f919392936102c1565b926102c1565b8201809211610baa57565b610b76565b90610bbb5f1991610990565b9181191691161790565b610bd9610bd4610bde926102c1565b6101ae565b6102c1565b90565b90565b90610bf9610bf4610c0092610bc5565b610be1565b8254610baf565b9055565b610c0d90610395565b90565b50610c2e610c28610c236005849061065e565b610b1a565b156103f5565b610d415733610c45610c3f8361023c565b9161023c565b03610d2557610c5e610c5960038390610785565b610ab7565b9182610c7a610c74610c6f5f610b46565b61023c565b9161023c565b14610d0957610caf610cbe91610ca7610c95610cc496610b5e565b33610c9f30610b6a565b908492611980565b92600461059c565b91610cb983610a73565b610b8a565b90610be4565b610cee7fb20d60b1eb3acf638f26312af31a14a578f284a2463cd12fbc3d15dbd72fde2b91610c04565b90610cf7610142565b80610d0181610289565b0390a2600190565b5f6305a9313960e21b815280610d2160048201610289565b0390fd5b5f63652bfbb760e01b815280610d3d60048201610289565b0390fd5b5f63652bfbb760e01b815280610d5960048201610289565b0390fd5b90610d709291610d6b610ae3565b610ae7565b90565b610d7b6117ff565b610d83610d85565b565b610d96610d915f610b46565b6119d0565b565b610da0610d73565b565b90610db794939291610db2611879565b610de7565b90610dc06118fd565b565b610dd1610dd7919392936102c1565b926102c1565b8203918211610de257565b610b76565b92909250610e08610e02610dfd6005869061065e565b610b1a565b156103f5565b610f595733610e1f610e198561023c565b9161023c565b03610f3d57610e38610e3360038590610785565b610ab7565b9283610e54610e4e610e495f610b46565b61023c565b9161023c565b14610f2157610e6d610e686004839061059c565b610a73565b610e7f610e79846102c1565b916102c1565b10610f0557610ec093610eb3610eb892610ead610e9e8692600461059c565b91610ea883610a73565b610dc2565b90610be4565b610b5e565b919091611a52565b610eea7fbeec9011a85e7048fdd8f58a139bb549b4d1bb285cf8f516cc937e6283c837bf91610c04565b90610ef3610142565b80610efd81610289565b0390a2600190565b5f633a23d82560e01b815280610f1d60048201610289565b0390fd5b5f6305a9313960e21b815280610f3960048201610289565b0390fd5b5f63652bfbb760e01b815280610f5560048201610289565b0390fd5b5f63652bfbb760e01b815280610f7160048201610289565b0390fd5b90610f89939291610f84610ae3565b610da2565b90565b601f801991011690565b634e487b7160e01b5f52604160045260245ffd5b90610fb490610f8c565b810190811067ffffffffffffffff821117610fce57604052565b610f96565b60e01b90565b90505190610fe682610372565b565b9060208282031261100157610ffe915f01610fd9565b90565b61014c565b61100f90610504565b9052565b91602061103492949361102d60408201965f83019061031b565b0190611006565b565b61103e610142565b3d5f823e3d90fd5b61104e610a5b565b5061106161105c600261096b565b6101d9565b61107b6110756110705f610b46565b61023c565b9161023c565b1461115b5761108e611093916003610785565b610ab7565b90816110af6110a96110a45f610b46565b61023c565b9161023c565b1461113f576020906110c96110c4600261096b565b6101d9565b6110eb63900d27209492946110f66110df610142565b96879586948594610fd3565b845260048401611013565b03915afa90811561113a575f9161110c575b5090565b61112d915060203d8111611133575b6111258183610faa565b810190610fe8565b5f611108565b503d61111b565b611036565b5f6305a9313960e21b81528061115760048201610289565b0390fd5b5f63e6c4247b60e01b81528061117360048201610289565b0390fd5b61117f610a9f565b506111895f610ab7565b90565b9061119e916111996117ff565b611208565b565b90565b906111b86111b36111bf92610590565b6111a0565b8254610995565b9055565b906111cf60ff91610990565b9181191691161790565b6111e2906103f5565b90565b90565b906111fd6111f8611204926111d9565b6111e5565b82546111c3565b9055565b908161122461121e6112195f610b46565b61023c565b9161023c565b148015611358575b61133c5761124461123f60038490610785565b610ab7565b61125e6112586112535f610b46565b61023c565b9161023c565b03611320576112788161127360038590610785565b6111a3565b61128e60016112896005859061065e565b6111e8565b81906112c36112bd7f4cc5a26679a9b3357a7f2703696556a1be866d1042f2a77c10f473f61f42493893610590565b91610590565b916112cc610142565b806112d681610289565b0390a360019061131b6113097f684decacf2493b17f551faa9ea498fd64a1c76866555f7d674b2cc22d3a7dc2c92610590565b92611312610142565b91829182610407565b0390a2565b5f63c99c6b4d60e01b81528061133860048201610289565b0390fd5b5f63e6c4247b60e01b81528061135460048201610289565b0390fd5b508061137461136e6113695f610b46565b61023c565b9161023c565b1461122c565b906113849161118c565b565b61139a61139561139f92610b27565b6101ae565b6102c1565b90565b6113ab906101b1565b90565b6113b7906113a2565b90565b6113c3906101cd565b90565b905051906113d38261050a565b565b906020828203126113ee576113eb915f016113c6565b90565b61014c565b611402611408919392936102c1565b926102c1565b916114148382026102c1565b92818404149015171561142357565b610b76565b61143190610504565b604d811161143f57600a0a90565b610b76565b634e487b7160e01b5f52601260045260245ffd5b61146461146a916102c1565b916102c1565b908115611475570490565b611444565b90611483610a5b565b5061149861149360038490610785565b610ab7565b91826114b46114ae6114a95f610b46565b61023c565b9161023c565b1461166e576114cb6114c6600261096b565b6101d9565b6114e56114df6114da5f610b46565b61023c565b9161023c565b14611652576114f86114fd91600461059c565b610a73565b908161151161150b5f611386565b916102c1565b1461164357602061152a611525600261096b565b6101d9565b9163900d27209261154e869294611559611542610142565b96879586948594610fd3565b845260048401611013565b03915afa90811561163e5761158461157f61159a936020935f91611611575b50956113ae565b6113ba565b63313ce56790611592610142565b938492610fd3565b825281806115aa60048201610289565b03915afa90811561160c576115db936115d5926115cf925f916115de575b50936113f3565b91611428565b90611458565b90565b6115ff915060203d8111611605575b6115f78183610faa565b8101906113d5565b5f6115c8565b503d6115ed565b611036565b6116319150843d8111611637575b6116298183610faa565b810190610fe8565b5f611578565b503d61161f565b611036565b50505061164f5f611386565b90565b5f63e6c4247b60e01b81528061166a60048201610289565b0390fd5b5f6305a9313960e21b81528061168660048201610289565b0390fd5b9061169c916116976117ff565b61169e565b565b6116b26116ad60038390610785565b610ab7565b6116cc6116c66116c15f610b46565b61023c565b9161023c565b1461172a576116e6826116e16005849061065e565b6111e8565b6117256117137f684decacf2493b17f551faa9ea498fd64a1c76866555f7d674b2cc22d3a7dc2c92610590565b9261171c610142565b91829182610407565b0390a2565b5f6305a9313960e21b81528061174260048201610289565b0390fd5b906117509161168a565b565b6117639061175e6117ff565b611765565b565b8061178061177a6117755f610b46565b61023c565b9161023c565b146117905761178e906119d0565b565b6117b361179c5f610b46565b5f918291631e4fbdf760e01b835260048301610328565b0390fd5b6117c090611752565b565b6117ca610a9f565b506117dd6117d8600261096b565b6101d9565b90565b6117f76117fc916117ef610ae3565b50600561065e565b610b1a565b90565b611807611177565b61182061181a611815611aa0565b61023c565b9161023c565b0361182757565b611849611832611aa0565b5f91829163118cdaa760e01b835260048301610328565b0390fd5b90565b61186461185f6118699261184d565b6101ae565b6102c1565b90565b6118766002611850565b90565b6118836001610a73565b61189c61189661189161186c565b6102c1565b916102c1565b146118b5576118b36118ac61186c565b6001610be4565b565b5f633ee5aeb560e01b8152806118cd60048201610289565b0390fd5b90565b6118e86118e36118ed926118d1565b6101ae565b6102c1565b90565b6118fa60016118d4565b90565b61190f6119086118f0565b6001610be4565b565b61191a906101cd565b90565b63ffffffff1690565b63ffffffff60e01b1690565b61194661194161194b9261191d565b610fd3565b611926565b90565b60409061197761197e949695939661196d60608401985f85019061031b565b602083019061031b565b01906102c4565b565b6004926119ba6119ce95936119c993946119a16323b872dd92949192611932565b936119aa610142565b978895602087019081520161194e565b60208201810382520383610faa565b611aad565b565b6119d95f610ab7565b6119e3825f6111a3565b90611a17611a117f8be0079c531659141344cd1fd0a4f28419497f9722a3daafe3b4186f6b6457e093610590565b91610590565b91611a20610142565b80611a2a81610289565b0390a3565b916020611a50929493611a4960408201965f83019061031b565b01906102c4565b565b90611a99611a9e93611a8a60049493611a7163a9059cbb919391611932565b92611a7a610142565b9687946020860190815201611a2f565b60208201810382520383610faa565b611aad565b565b611aa8610a9f565b503390565b905f602091611aba610a5b565b50611ac3610a5b565b50828151910182855af115611b56573d5f5190611ae8611ae25f611386565b916102c1565b145f14611b3c5750611af981611911565b3b611b0c611b065f611386565b916102c1565b145b611b155750565b611b21611b3891611911565b5f918291635274afe760e01b835260048301610328565b0390fd5b611b4f611b4960016118d4565b916102c1565b1415611b0e565b6040513d5f823e3d90fdfea26469706673582212200e38be727cc8e75af044bce5f699867a702e0dd96e92af82e6837e4c35cf484064736f6c634300081e0033","linkReferences":{}},"methodIdentifiers":{"authorizedZkTokens(address)":"b7f294a7","getPriceOracle()":"fca513a8","getTotalCollateral(address)":"60a98b80","getTotalCollateralValue(address,uint8)":"e9b57673","getUnderlyingToken(address)":"691bcc88","getUnderlyingTokenPrice(address,uint8)":"791f493e","isAuthorized(address)":"fe9fbb80","lockCollateral(address,uint256,bytes32)":"6b7c6d20","owner()":"8da5cb5b","priceOracle()":"2630c12f","registerZkToken(address,address)":"cb387d96","releaseCollateral(address,address,uint256,bytes32)":"728128cf","renounceOwnership()":"715018a6","setAuthorization(address,bool)":"eecea000","setPriceOracle(address)":"530e784f","totalCollateral(address)":"7e059b22","transferOwnership(address)":"f2fde38b","underlyingTokens(address)":"eb4b3e88"},"id":34}