{"abi":[{"type":"constructor","inputs":[{"name":"_pyth","type":"address","internalType":"address"}],"stateMutability":"nonpayable"},{"type":"function","name":"PYTH","inputs":[],"outputs":[{"name":"","type":"address","internalType":"contract IPyth"}],"stateMutability":"view"},{"type":"function","name":"getPrice","inputs":[{"name":"token","type":"address","internalType":"address"}],"outputs":[{"name":"price","type":"tuple","internalType":"struct IPriceOracle.Price","components":[{"name":"price","type":"int64","internalType":"int64"},{"name":"conf","type":"uint64","internalType":"uint64"},{"name":"expo","type":"int32","internalType":"int32"},{"name":"publishTime","type":"uint256","internalType":"uint256"}]}],"stateMutability":"view"},{"type":"function","name":"getPriceFeedId","inputs":[{"name":"token","type":"address","internalType":"address"}],"outputs":[{"name":"priceId","type":"bytes32","internalType":"bytes32"}],"stateMutability":"view"},{"type":"function","name":"getPriceInUsd","inputs":[{"name":"token","type":"address","internalType":"address"},{"name":"decimals","type":"uint8","internalType":"uint8"}],"outputs":[{"name":"priceInUsd","type":"uint256","internalType":"uint256"}],"stateMutability":"view"},{"type":"function","name":"getPriceUnsafe","inputs":[{"name":"token","type":"address","internalType":"address"}],"outputs":[{"name":"price","type":"tuple","internalType":"struct IPriceOracle.Price","components":[{"name":"price","type":"int64","internalType":"int64"},{"name":"conf","type":"uint64","internalType":"uint64"},{"name":"expo","type":"int32","internalType":"int32"},{"name":"publishTime","type":"uint256","internalType":"uint256"}]}],"stateMutability":"view"},{"type":"function","name":"getPythContract","inputs":[],"outputs":[{"name":"pythAddress","type":"address","internalType":"address"}],"stateMutability":"view"},{"type":"function","name":"getUpdateFee","inputs":[{"name":"priceUpdateData","type":"bytes[]","internalType":"bytes[]"}],"outputs":[{"name":"feeAmount","type":"uint256","internalType":"uint256"}],"stateMutability":"view"},{"type":"function","name":"hasPriceFeed","inputs":[{"name":"token","type":"address","internalType":"address"}],"outputs":[{"name":"registered","type":"bool","internalType":"bool"}],"stateMutability":"view"},{"type":"function","name":"maxPriceAge","inputs":[],"outputs":[{"name":"","type":"uint256","internalType":"uint256"}],"stateMutability":"view"},{"type":"function","name":"owner","inputs":[],"outputs":[{"name":"","type":"address","internalType":"address"}],"stateMutability":"view"},{"type":"function","name":"priceFeedToToken","inputs":[{"name":"","type":"bytes32","internalType":"bytes32"}],"outputs":[{"name":"","type":"address","internalType":"address"}],"stateMutability":"view"},{"type":"function","name":"registerPriceFeed","inputs":[{"name":"token","type":"address","internalType":"address"},{"name":"priceId","type":"bytes32","internalType":"bytes32"}],"outputs":[],"stateMutability":"nonpayable"},{"type":"function","name":"renounceOwnership","inputs":[],"outputs":[],"stateMutability":"nonpayable"},{"type":"function","name":"setMaxPriceAge","inputs":[{"name":"_maxPriceAge","type":"uint256","internalType":"uint256"}],"outputs":[],"stateMutability":"nonpayable"},{"type":"function","name":"tokenToPriceFeed","inputs":[{"name":"","type":"address","internalType":"address"}],"outputs":[{"name":"","type":"bytes32","internalType":"bytes32"}],"stateMutability":"view"},{"type":"function","name":"transferOwnership","inputs":[{"name":"newOwner","type":"address","internalType":"address"}],"outputs":[],"stateMutability":"nonpayable"},{"type":"function","name":"updatePriceFeeds","inputs":[{"name":"priceUpdateData","type":"bytes[]","internalType":"bytes[]"}],"outputs":[],"stateMutability":"payable"},{"type":"event","name":"OwnershipTransferred","inputs":[{"name":"previousOwner","type":"address","indexed":true,"internalType":"address"},{"name":"newOwner","type":"address","indexed":true,"internalType":"address"}],"anonymous":false},{"type":"event","name":"PriceFeedRegistered","inputs":[{"name":"token","type":"address","indexed":true,"internalType":"address"},{"name":"priceId","type":"bytes32","indexed":false,"internalType":"bytes32"}],"anonymous":false},{"type":"event","name":"PricesUpdated","inputs":[{"name":"priceIds","type":"bytes32[]","indexed":false,"internalType":"bytes32[]"},{"name":"updateFee","type":"uint256","indexed":false,"internalType":"uint256"}],"anonymous":false},{"type":"error","name":"InsufficientFee","inputs":[]},{"type":"error","name":"InvalidPriceId","inputs":[]},{"type":"error","name":"InvalidPriceUpdate","inputs":[]},{"type":"error","name":"InvalidToken","inputs":[]},{"type":"error","name":"OwnableInvalidOwner","inputs":[{"name":"owner","type":"address","internalType":"address"}]},{"type":"error","name":"OwnableUnauthorizedAccount","inputs":[{"name":"account","type":"address","internalType":"address"}]},{"type":"error","name":"PriceFeedAlreadyRegistered","inputs":[]},{"type":"error","name":"PriceFeedNotRegistered","inputs":[]},{"type":"error","name":"PriceNotPositive","inputs":[]},{"type":"error","name":"StalePrice","inputs":[]}],"bytecode":{"object":"0x60a0604052346100695761001961001461012e565b610216565b61002161006e565b611ee16103d082396080518181816103f701528181610cf301528181610eee01528181611345015281816116b4015281816119c401528181611a4a0152611c980152611ee190f35b610074565b60405190565b5f80fd5b601f801991011690565b634e487b7160e01b5f52604160045260245ffd5b906100a090610078565b810190811060018060401b038211176100b857604052565b610082565b906100d06100c961006e565b9283610096565b565b5f80fd5b60018060a01b031690565b6100ea906100d6565b90565b6100f6816100e1565b036100fd57565b5f80fd5b9050519061010e826100ed565b565b9060208282031261012957610126915f01610101565b90565b6100d2565b61014c6122b180380380610141816100bd565b928339810190610110565b90565b5f1b90565b906101605f199161014f565b9181191691161790565b90565b90565b90565b61018761018261018c9261016a565b610170565b61016d565b90565b90565b906101a76101a26101ae92610173565b61018f565b8254610154565b9055565b90565b6101c96101c46101ce926101b2565b610170565b6100d6565b90565b6101da906101b5565b90565b5f0190565b6101f66101f16101fb926100d6565b610170565b6100d6565b90565b610207906101e2565b90565b610213906101fe565b90565b61021f33610297565b61022b603c6003610192565b8061024661024061023b5f6101d1565b6100e1565b916100e1565b14610259576102549061020a565b608052565b5f63c1ab6dc160e01b815280610271600482016101dd565b0390fd5b61027e906100e1565b9052565b9190610295905f60208501940190610275565b565b806102b26102ac6102a75f6101d1565b6100e1565b916100e1565b146102c2576102c090610370565b565b6102e56102ce5f6101d1565b5f918291631e4fbdf760e01b835260048301610282565b0390fd5b5f1c90565b60018060a01b031690565b61030561030a916102e9565b6102ee565b90565b61031790546102f9565b90565b9061032b60018060a01b039161014f565b9181191691161790565b61033e906101e2565b90565b61034a90610335565b90565b90565b9061036561036061036c92610341565b61034d565b825461031a565b9055565b6103795f61030d565b610383825f610350565b906103b76103b17f8be0079c531659141344cd1fd0a4f28419497f9722a3daafe3b4186f6b6457e093610341565b91610341565b916103c061006e565b806103ca816101dd565b0390a356fe60806040526004361015610013575b610971565b61001d5f3561012c565b80630b7983a2146101275780631584410a1461012257806341976e091461011d57806356447ce81461011857806367e406d5146101135780636d1fdf6f1461010e578063715018a61461010957806375087560146101045780638078f22c146100ff5780638da5cb5b146100fa578063900d2720146100f55780639327a4fc146100f0578063ba74b84f146100eb578063d47eed45146100e6578063ef9e5e28146100e1578063f2fde38b146100dc5763f989568d0361000e5761093c565b610909565b6108df565b6108a9565b6107f3565b610734565b6106fe565b610673565b61063e565b610584565b6104fe565b6104c9565b610472565b6103c2565b610347565b610268565b6101c3565b60e01c90565b60405190565b5f80fd5b5f80fd5b5f80fd5b60018060a01b031690565b61015890610144565b90565b6101648161014f565b0361016b57565b5f80fd5b9050359061017c8261015b565b565b9060208282031261019757610194915f0161016f565b90565b61013c565b151590565b6101aa9061019c565b9052565b91906101c1905f602085019401906101a1565b565b346101f3576101ef6101de6101d936600461017e565b6109c3565b6101e6610132565b918291826101ae565b0390f35b610138565b5f91031261020257565b61013c565b1c90565b90565b61021e9060086102239302610207565b61020b565b90565b90610231915461020e565b90565b61024060035f90610226565b90565b90565b61024f90610243565b9052565b9190610266905f60208501940190610246565b565b34610298576102783660046101f8565b610294610283610234565b61028b610132565b91829182610253565b0390f35b610138565b60070b90565b6102ac9061029d565b9052565b67ffffffffffffffff1690565b6102c6906102b0565b9052565b60030b90565b6102d9906102ca565b9052565b6102e690610243565b9052565b90606080610330936103025f8201515f8601906102a3565b610314602082015160208601906102bd565b610326604082015160408601906102d0565b01519101906102dd565b565b9190610345905f608085019401906102ea565b565b346103775761037361036261035d36600461017e565b610cb0565b61036a610132565b91829182610332565b0390f35b610138565b61038581610243565b0361038c57565b5f80fd5b9050359061039d8261037c565b565b906020828203126103b8576103b5915f01610390565b90565b61013c565b5f0190565b346103f0576103da6103d536600461039f565b610ed1565b6103e2610132565b806103ec816103bd565b0390f35b610138565b7f000000000000000000000000000000000000000000000000000000000000000090565b90565b61043061042b61043592610144565b610419565b610144565b90565b6104419061041c565b90565b61044d90610438565b90565b61045990610444565b9052565b9190610470905f60208501940190610450565b565b346104a2576104823660046101f8565b61049e61048d6103f5565b610495610132565b9182918261045d565b0390f35b610138565b6104b09061014f565b9052565b91906104c7905f602085019401906104a7565b565b346104f9576104d93660046101f8565b6104f56104e4610ee0565b6104ec610132565b918291826104b4565b0390f35b610138565b3461052c5761050e3660046101f8565b610516610f62565b61051e610132565b80610528816103bd565b0390f35b610138565b90565b61053d81610531565b0361054457565b5f80fd5b9050359061055582610534565b565b919060408382031261057f578061057361057c925f860161016f565b93602001610548565b90565b61013c565b346105b35761059d610597366004610557565b9061111f565b6105a5610132565b806105af816103bd565b0390f35b610138565b6105c190610438565b90565b906105ce906105b8565b5f5260205260405f2090565b90565b6105ed9060086105f29302610207565b6105da565b90565b9061060091546105dd565b90565b610619906106146001915f926105c4565b6105f5565b90565b61062590610531565b9052565b919061063c905f6020850194019061061c565b565b3461066e5761066a61065961065436600461017e565b610603565b610661610132565b91829182610629565b0390f35b610138565b346106a3576106833660046101f8565b61069f61068e61114c565b610696610132565b918291826104b4565b0390f35b610138565b60ff1690565b6106b7816106a8565b036106be57565b5f80fd5b905035906106cf826106ae565b565b91906040838203126106f957806106ed6106f6925f860161016f565b936020016106c2565b90565b61013c565b3461072f5761072b61071a6107143660046106d1565b90611302565b610722610132565b91829182610253565b0390f35b610138565b346107645761076061074f61074a36600461017e565b6114fb565b610757610132565b91829182610629565b0390f35b610138565b906020828203126107825761077f915f01610548565b90565b61013c565b61079090610531565b90565b9061079d90610787565b5f5260205260405f2090565b60018060a01b031690565b6107c49060086107c99302610207565b6107a9565b90565b906107d791546107b4565b90565b6107f0906107eb6002915f92610793565b6107cc565b90565b346108235761081f61080e610809366004610769565b6107da565b610816610132565b918291826104b4565b0390f35b610138565b5f80fd5b5f80fd5b5f80fd5b909182601f8301121561086e5781359167ffffffffffffffff831161086957602001926020830284011161086457565b610830565b61082c565b610828565b906020828203126108a4575f82013567ffffffffffffffff811161089f5761089b9201610834565b9091565b610140565b61013c565b346108da576108d66108c56108bf366004610873565b906116a2565b6108cd610132565b91829182610253565b0390f35b610138565b6108f36108ed366004610873565b906119be565b6108fb610132565b80610905816103bd565b0390f35b346109375761092161091c36600461017e565b611c46565b610929610132565b80610933816103bd565b0390f35b610138565b3461096c5761096861095761095236600461017e565b611c51565b61095f610132565b91829182610332565b0390f35b610138565b5f80fd5b5f90565b5f1c90565b61098a61098f91610979565b6105da565b90565b61099c905461097e565b90565b90565b5f1b90565b6109bb6109b66109c09261099f565b6109a2565b610531565b90565b6109da6109df916109d2610975565b5060016105c4565b610992565b6109f96109f36109ee5f6109a7565b610531565b91610531565b141590565b601f801991011690565b634e487b7160e01b5f52604160045260245ffd5b90610a26906109fe565b810190811067ffffffffffffffff821117610a4057604052565b610a08565b90610a58610a51610132565b9283610a1c565b565b610a646080610a45565b90565b5f90565b5f90565b5f90565b5f90565b610a7f610a5a565b90602080808085610a8e610a67565b815201610a99610a6b565b815201610aa4610a6f565b815201610aaf610a73565b81525050565b610abd610a77565b90565b610acc610ad191610979565b61020b565b90565b610ade9054610ac0565b90565b5f80fd5b60e01b90565b5f80fd5b610af88161029d565b03610aff57565b5f80fd5b90505190610b1082610aef565b565b610b1b816102b0565b03610b2257565b5f80fd5b90505190610b3382610b12565b565b610b3e816102ca565b03610b4557565b5f80fd5b90505190610b5682610b35565b565b90505190610b658261037c565b565b9190608083820312610bc557610bbe90610b816080610a45565b93610b8e825f8301610b03565b5f860152610b9f8260208301610b26565b6020860152610bb18260408301610b49565b6040860152606001610b58565b6060830152565b610aeb565b90608082820312610be357610be0915f01610b67565b90565b61013c565b916020610c09929493610c0260408201965f83019061061c565b0190610246565b565b610c13610132565b3d5f823e3d90fd5b610c25905161029d565b90565b610c3c610c37610c419261099f565b610419565b61029d565b90565b610c4e90516102b0565b90565b610c5b90516102ca565b90565b610c689051610243565b90565b610c756080610a45565b90565b90610c829061029d565b9052565b90610c90906102b0565b9052565b90610c9e906102ca565b9052565b90610cac90610243565b9052565b610cc7610ccc91610cbf610ab5565b5060016105c4565b610992565b80610ce7610ce1610cdc5f6109a7565b610531565b91610531565b14610e40576080610d177f0000000000000000000000000000000000000000000000000000000000000000610444565b63a4ae35e09290610d43610d2b6003610ad4565b94610d4e610d37610132565b96879586948594610ae5565b845260048401610be8565b03915afa908115610e3b575f91610e0d575b50610d6c5f8201610c1b565b610d7e610d785f610c28565b9161029d565b1315610df157610dee610d925f8301610c1b565b91610de5610da260208301610c44565b91610ddc610dbe6060610db760408501610c51565b9301610c5e565b93610dd3610dca610c6b565b975f8901610c78565b60208701610c86565b60408501610c94565b60608301610ca2565b90565b5f63249730af60e21b815280610e09600482016103bd565b0390fd5b610e2e915060803d8111610e34575b610e268183610a1c565b810190610bca565b5f610d60565b503d610e1c565b610c0b565b5f63162dd15760e11b815280610e58600482016103bd565b0390fd5b610e6d90610e68611df1565b610ec4565b565b90610e7b5f19916109a2565b9181191691161790565b610e99610e94610e9e92610243565b610419565b610243565b90565b90565b90610eb9610eb4610ec092610e85565b610ea1565b8254610e6f565b9055565b610ecf906003610ea4565b565b610eda90610e5c565b565b5f90565b610ee8610edc565b50610f127f0000000000000000000000000000000000000000000000000000000000000000610444565b90565b610f1d611df1565b610f25610f4f565b565b610f3b610f36610f409261099f565b610419565b610144565b90565b610f4c90610f27565b90565b610f60610f5b5f610f43565b611e3f565b565b610f6a610f15565b565b90610f7e91610f79611df1565b610fea565b565b610f8990610979565b90565b90610fa1610f9c610fa892610787565b610f80565b8254610e6f565b9055565b90610fbd60018060a01b03916109a2565b9181191691161790565b90565b90610fdf610fda610fe6926105b8565b610fc7565b8254610fac565b9055565b80611005610fff610ffa5f610f43565b61014f565b9161014f565b14611103578161102561101f61101a5f6109a7565b610531565b91610531565b146110e75761103e611039600183906105c4565b610992565b61105861105261104d5f6109a7565b610531565b91610531565b036110cb576110728261106d600184906105c4565b610f8c565b6110878161108260028590610793565b610fca565b6110c66110b47f74d6c3f76797bbf057a9eee350e5245be15de95bf9d2339e6de510ec592195ff926105b8565b926110bd610132565b91829182610629565b0390a2565b5f631cc3ad3360e01b8152806110e3600482016103bd565b0390fd5b5f6373d7250f60e01b8152806110ff600482016103bd565b0390fd5b5f63c1ab6dc160e01b81528061111b600482016103bd565b0390fd5b9061112991610f6c565b565b61113761113c91610979565b6107a9565b90565b611149905461112b565b90565b611154610edc565b5061115e5f61113f565b90565b5f90565b63ffffffff1690565b61118261117d611187926106a8565b610419565b611165565b90565b61119e6111996111a392611165565b610419565b6102ca565b90565b634e487b7160e01b5f52601160045260245ffd5b6111c66111cc916102ca565b916102ca565b0190637fffffff198212637fffffff8313176111e457565b6111a6565b6111fd6111f86112029261099f565b610419565b6102ca565b90565b90565b61121c6112176112219261029d565b610419565b611205565b90565b61123861123361123d92611205565b610419565b610243565b90565b611249906102ca565b637fffffff19811461125a575f0390565b6111a6565b61127361126e611278926102ca565b610419565b611165565b90565b61128490611165565b604d811161129257600a0a90565b6111a6565b634e487b7160e01b5f52601260045260245ffd5b6112b76112bd91610243565b91610243565b9081156112c8570490565b611297565b6112dc6112e291939293610243565b92610243565b916112ee838202610243565b9281840414901517156112fd57565b6111a6565b61131961131e91611311611161565b5060016105c4565b610992565b8061133961133361132e5f6109a7565b610531565b91610531565b146114db5760806113697f0000000000000000000000000000000000000000000000000000000000000000610444565b63a4ae35e0929061139561137d6003610ad4565b946113a0611389610132565b96879586948594610ae5565b845260048401610be8565b03915afa9081156114d6575f916114a8575b50906113bf5f8301610c1b565b6113d16113cb5f610c28565b9161029d565b131561148c57611409906114036113fe6113f860406113f15f8801610c1b565b9601610c51565b9261116e565b61118a565b906111ba565b8061141c6114165f6111e9565b916102ca565b12155f146114535761144961144461143e61143961144f95611208565b611224565b9261125f565b61127b565b906112cd565b905b565b61148061147b61147661147061146b61148696611208565b611224565b93611240565b61125f565b61127b565b906112ab565b90611451565b5f63249730af60e21b8152806114a4600482016103bd565b0390fd5b6114c9915060803d81116114cf575b6114c18183610a1c565b810190610bca565b5f6113b2565b503d6114b7565b610c0b565b5f63162dd15760e11b8152806114f3600482016103bd565b0390fd5b5f90565b6115126115179161150a6114f7565b5060016105c4565b610992565b908161153361152d6115285f6109a7565b610531565b91610531565b1461153a57565b5f63162dd15760e11b815280611552600482016103bd565b0390fd5b9060208282031261156f5761156c915f01610b58565b90565b61013c565b60209181520190565b90565b60209181520190565b90825f939282370152565b91906115ae816115a7816115b395611580565b8095611589565b6109fe565b0190565b906115c29291611594565b90565b5f80fd5b5f80fd5b5f80fd5b903560016020038236030381121561161257016020813591019167ffffffffffffffff821161160d57600182023603831361160857565b6115c9565b6115c5565b6115cd565b60200190565b918161162891611574565b90816116396020830284019461157d565b92835f925b84841061164e5750505050505090565b909192939495602061167a611674838560019503885261166e8b886115d1565b906115b7565b98611617565b94019401929493919061163e565b909161169f9260208301925f81850391015261161d565b90565b906020906116ae611161565b506116d87f0000000000000000000000000000000000000000000000000000000000000000610444565b6116fa63d47eed459492946117056116ee610132565b96879586948594610ae5565b845260048401611688565b03915afa908115611749575f9161171b575b5090565b61173c915060203d8111611742575b6117348183610a1c565b810190611556565b5f611717565b503d61172a565b610c0b565b5f91031261175857565b61013c565b61177161176c6117769261099f565b610419565b610243565b90565b67ffffffffffffffff81116117915760208091020190565b610a08565b906117a86117a383611779565b610a45565b918252565b369037565b906117d76117bf83611796565b926020806117cd8693611779565b92019103906117ad565b565b5190565b60209181520190565b60200190565b6117f590610531565b9052565b90611806816020936117ec565b0190565b60200190565b9061182d611827611820846117d9565b80936117dd565b926117e6565b905f5b81811061183d5750505090565b90919261185661185060019286516117f9565b9461180a565b9101919091611830565b9291602061187c6118849360408701908782035f890152611810565b940190610246565b565b61189561189b91939293610243565b92610243565b82039182116118a657565b6111a6565b905090565b6118bb5f80926118ab565b0190565b6118c8906118b0565b90565b67ffffffffffffffff81116118e9576118e56020916109fe565b0190565b610a08565b906119006118fb836118cb565b610a45565b918252565b606090565b3d5f146119255761191a3d6118ee565b903d5f602084013e5b565b61192d611905565b90611923565b60209181520190565b5f7f526566756e64206661696c656400000000000000000000000000000000000000910152565b611970600d602092611933565b6119798161193c565b0190565b6119929060208101905f818303910152611963565b90565b1561199c57565b6119a4610132565b62461bcd60e51b8152806119ba6004820161197d565b0390fd5b906119e87f0000000000000000000000000000000000000000000000000000000000000000610444565b602063d47eed45918490611a0e8594611a19611a02610132565b96879586948594610ae5565b845260048401611688565b03915afa908115611bdc575f91611bae575b509134611a40611a3a85610243565b91610243565b10611b9357611a6e7f0000000000000000000000000000000000000000000000000000000000000000610444565b9163ef9e5e2884939093929193813b15611b8e575f93611a9f91611aaa611a93610132565b97889687958694610ae5565b845260048401611688565b03925af18015611b8957611b5d575b50611acb611ac65f61175d565b6117b2565b817f836c4e988f14b9f1b2c614f835238a5a33a196308d3ad5e824c62d74a12d583491611b02611af9610132565b92839283611860565b0390a134611b18611b1283610243565b91610243565b11611b21575b50565b5f80611b5792611b32339134611886565b611b3a610132565b9081611b45816118bf565b03925af1611b5161190a565b50611995565b5f611b1e565b611b7c905f3d8111611b82575b611b748183610a1c565b81019061174e565b5f611ab9565b503d611b6a565b610c0b565b610ae1565b5f62976f7560e21b815280611baa600482016103bd565b0390fd5b611bcf915060203d8111611bd5575b611bc78183610a1c565b810190611556565b5f611a2b565b503d611bbd565b610c0b565b611bf290611bed611df1565b611bf4565b565b80611c0f611c09611c045f610f43565b61014f565b9161014f565b14611c1f57611c1d90611e3f565b565b611c42611c2b5f610f43565b5f918291631e4fbdf760e01b8352600483016104b4565b0390fd5b611c4f90611be1565b565b611c68611c6d91611c60610ab5565b5060016105c4565b610992565b80611c88611c82611c7d5f6109a7565b610531565b91610531565b14611dd5576080611ce391611cbc7f0000000000000000000000000000000000000000000000000000000000000000610444565b611cd86396834ad3611ccc610132565b95869485938493610ae5565b835260048301610629565b03915afa908115611dd0575f91611da2575b50611d015f8201610c1b565b611d13611d0d5f610c28565b9161029d565b1315611d8657611d83611d275f8301610c1b565b91611d7a611d3760208301610c44565b91611d71611d536060611d4c60408501610c51565b9301610c5e565b93611d68611d5f610c6b565b975f8901610c78565b60208701610c86565b60408501610c94565b60608301610ca2565b90565b5f63249730af60e21b815280611d9e600482016103bd565b0390fd5b611dc3915060803d8111611dc9575b611dbb8183610a1c565b810190610bca565b5f611cf5565b503d611db1565b610c0b565b5f63162dd15760e11b815280611ded600482016103bd565b0390fd5b611df961114c565b611e12611e0c611e07611e9e565b61014f565b9161014f565b03611e1957565b611e3b611e24611e9e565b5f91829163118cdaa760e01b8352600483016104b4565b0390fd5b611e485f61113f565b611e52825f610fca565b90611e86611e807f8be0079c531659141344cd1fd0a4f28419497f9722a3daafe3b4186f6b6457e0936105b8565b916105b8565b91611e8f610132565b80611e99816103bd565b0390a3565b611ea6610edc565b50339056fea2646970667358221220976d310b6d6bac9e590e196f4df426743ba190ed63b2e6b256a0f7a1429d8f2864736f6c634300081e0033","linkReferences":{}},"methodIdentifiers":{"PYTH()":"67e406d5","getPrice(address)":"41976e09","getPriceFeedId(address)":"9327a4fc","getPriceInUsd(address,uint8)":"900d2720","getPriceUnsafe(address)":"f989568d","getPythContract()":"6d1fdf6f","getUpdateFee(bytes[])":"d47eed45","hasPriceFeed(address)":"0b7983a2","maxPriceAge()":"1584410a","owner()":"8da5cb5b","priceFeedToToken(bytes32)":"ba74b84f","registerPriceFeed(address,bytes32)":"75087560","renounceOwnership()":"715018a6","setMaxPriceAge(uint256)":"56447ce8","tokenToPriceFeed(address)":"8078f22c","transferOwnership(address)":"f2fde38b","updatePriceFeeds(bytes[])":"ef9e5e28"},"id":35}