{"abi":[{"type":"function","name":"announce","inputs":[{"name":"ephemeralPubKey","type":"bytes","internalType":"bytes"},{"name":"stealthAddress","type":"address","internalType":"address"},{"name":"metadata","type":"bytes","internalType":"bytes"}],"outputs":[],"stateMutability":"nonpayable"},{"type":"function","name":"getStealthMetaAddress","inputs":[{"name":"registrant","type":"address","internalType":"address"}],"outputs":[{"name":"spendingPubKey","type":"bytes","internalType":"bytes"},{"name":"viewingPubKey","type":"bytes","internalType":"bytes"}],"stateMutability":"view"},{"type":"function","name":"getStealthMetaAddressBatch","inputs":[{"name":"registrant","type":"address","internalType":"address"}],"outputs":[{"name":"registered","type":"bool","internalType":"bool"},{"name":"spendingPubKey","type":"bytes","internalType":"bytes"},{"name":"viewingPubKey","type":"bytes","internalType":"bytes"}],"stateMutability":"view"},{"type":"function","name":"isRegistered","inputs":[{"name":"registrant","type":"address","internalType":"address"}],"outputs":[{"name":"registered","type":"bool","internalType":"bool"}],"stateMutability":"view"},{"type":"function","name":"registerStealthMetaAddress","inputs":[{"name":"spendingPubKey","type":"bytes","internalType":"bytes"},{"name":"viewingPubKey","type":"bytes","internalType":"bytes"}],"outputs":[],"stateMutability":"nonpayable"},{"type":"function","name":"totalAnnouncements","inputs":[],"outputs":[{"name":"","type":"uint256","internalType":"uint256"}],"stateMutability":"view"},{"type":"event","name":"Announcement","inputs":[{"name":"ephemeralPubKey","type":"bytes","indexed":false,"internalType":"bytes"},{"name":"stealthAddress","type":"address","indexed":true,"internalType":"address"},{"name":"caller","type":"address","indexed":true,"internalType":"address"},{"name":"metadata","type":"bytes","indexed":false,"internalType":"bytes"}],"anonymous":false},{"type":"event","name":"StealthMetaAddressSet","inputs":[{"name":"registrant","type":"address","indexed":true,"internalType":"address"},{"name":"spendingPubKey","type":"bytes","indexed":false,"internalType":"bytes"},{"name":"viewingPubKey","type":"bytes","indexed":false,"internalType":"bytes"}],"anonymous":false},{"type":"error","name":"AlreadyRegistered","inputs":[]},{"type":"error","name":"InvalidPublicKey","inputs":[]},{"type":"error","name":"InvalidStealthAddress","inputs":[]},{"type":"error","name":"NotRegistered","inputs":[]}],"bytecode":{"object":"0x608060405234601c57600e6020565b610e1f61002b8239610e1f90f35b6026565b60405190565b5f80fdfe60806040526004361015610013575b61049c565b61001d5f3561007c565b80631b33b60a1461007757806367991de0146100725780637103ac991461006d57806398971edb14610068578063c3c5a547146100635763d917df2d0361000e57610467565b6103c2565b610377565b610315565b61027f565b61018a565b60e01c90565b60405190565b5f80fd5b5f80fd5b5f80fd5b60018060a01b031690565b6100a890610094565b90565b6100b48161009f565b036100bb57565b5f80fd5b905035906100cc826100ab565b565b906020828203126100e7576100e4915f016100bf565b90565b61008c565b151590565b6100fa906100ec565b9052565b5190565b60209181520190565b90825f9392825e0152565b601f801991011690565b61013f61014860209361014d93610136816100fe565b93848093610102565b9586910161010b565b610116565b0190565b9161018793916101799161016c60608601925f8701906100f1565b8482036020860152610120565b916040818403910152610120565b90565b346101bd576101b96101a56101a03660046100ce565b610679565b6101b0939193610082565b93849384610151565b0390f35b610088565b5f80fd5b5f80fd5b5f80fd5b909182601f830112156102085781359167ffffffffffffffff83116102035760200192600183028401116101fe57565b6101ca565b6101c6565b6101c2565b9190606083820312610275575f83013567ffffffffffffffff811161027057816102389185016101ce565b92909361024883602083016100bf565b92604082013567ffffffffffffffff811161026b5761026792016101ce565b9091565b610090565b610090565b61008c565b5f0190565b346102b15761029b61029236600461020d565b93929092610825565b6102a3610082565b806102ad8161027a565b0390f35b610088565b9091604082840312610310575f82013567ffffffffffffffff811161030b57836102e19184016101ce565b929093602082013567ffffffffffffffff81116103065761030292016101ce565b9091565b610090565b610090565b61008c565b34610347576103316103283660046102b6565b92919091610c43565b610339610082565b806103438161027a565b0390f35b610088565b90916103666103749360408401908482035f860152610120565b916020818403910152610120565b90565b346103a85761038f61038a3660046100ce565b610d52565b906103a461039b610082565b9283928361034c565b0390f35b610088565b91906103c0905f602085019401906100f1565b565b346103f2576103ee6103dd6103d83660046100ce565b610dc8565b6103e5610082565b918291826103ad565b0390f35b610088565b5f91031261040157565b61008c565b1c90565b90565b61041d9060086104229302610406565b61040a565b90565b90610430915461040d565b90565b61043f60015f90610425565b90565b90565b61044e90610442565b9052565b9190610465905f60208501940190610445565b565b34610497576104773660046103f7565b610493610482610433565b61048a610082565b91829182610452565b0390f35b610088565b5f80fd5b5f90565b606090565b90565b6104c06104bb6104c592610094565b6104a9565b610094565b90565b6104d1906104ac565b90565b6104dd906104c8565b90565b906104ea906104d4565b5f5260205260405f2090565b90565b5f1c90565b60ff1690565b610510610515916104f9565b6104fe565b90565b6105229054610504565b90565b634e487b7160e01b5f52602260045260245ffd5b9060016002830492168015610559575b602083101461055457565b610525565b91607f1691610549565b60209181520190565b5f5260205f2090565b905f929180549061058f61058883610539565b8094610563565b916001811690815f146105e657506001146105aa575b505050565b6105b7919293945061056c565b915f925b8184106105ce57505001905f80806105a5565b600181602092959395548486015201910192906105bb565b92949550505060ff19168252151560200201905f80806105a5565b9061060b91610575565b90565b634e487b7160e01b5f52604160045260245ffd5b9061062c90610116565b810190811067ffffffffffffffff82111761064657604052565b61060e565b9061066b6106649261065b610082565b93848092610601565b0383610622565b565b6106769061064b565b90565b6106a16106a6916106886104a0565b506106916104a4565b5061069a6104a4565b505f6104e0565b6104f6565b906106b360028301610518565b906106ce6106c860015f86019501939461066d565b9261066d565b90565b5090565b90565b6106ec6106e76106f1926106d5565b6104a9565b610442565b90565b90565b61070b610706610710926106f4565b6104a9565b610094565b90565b61071c906106f7565b90565b61072b610730916104f9565b61040a565b90565b61073d905461071f565b90565b634e487b7160e01b5f52601160045260245ffd5b61075d90610442565b5f19811461076b5760010190565b610740565b5f1b90565b906107815f1991610770565b9181191691161790565b61079f61079a6107a492610442565b6104a9565b610442565b90565b90565b906107bf6107ba6107c69261078b565b6107a7565b8254610775565b9055565b90825f939282370152565b91906107ef816107e8816107f495610102565b80956107ca565b610116565b0190565b929061081490610822959360408601918683035f8801526107d5565b9260208185039101526107d5565b90565b9190916108338184906106d1565b61084661084060216106d8565b91610442565b036108f6578161086661086061085b5f610713565b61009f565b9161009f565b146108da5761088761088061087b6001610733565b610754565b60016107aa565b9190916108d53394956108c36108bd7fc5a204ff69b6f5b8549e2626d393e2cadaa54b441455846e93e89b352ec3f276966104d4565b966104d4565b966108cc610082565b948594856107f8565b0390a3565b5f6301696e0760e01b8152806108f26004820161027a565b0390fd5b5f63145a1fdd60e31b81528061090e6004820161027a565b0390fd5b9061092561091e610082565b9283610622565b565b6109316060610912565b90565b5f80fd5b67ffffffffffffffff811161095657610952602091610116565b0190565b61060e565b9092919261097061096b82610938565b610912565b9381855260208501908284011161098c5761098a926107ca565b565b610934565b61099c91369161095b565b90565b52565b906109ac906100ec565b9052565b5190565b601f602091010490565b1b90565b919060086109dd9102916109d75f19846109be565b926109be565b9181191691161790565b91906109fd6109f8610a059361078b565b6107a7565b9083546109c2565b9055565b5f90565b610a1f91610a19610a09565b916109e7565b565b5b818110610a2d575050565b80610a3a5f600193610a0d565b01610a22565b9190601f8111610a50575b505050565b610a5c610a819361056c565b906020610a68846109b4565b83019310610a89575b610a7a906109b4565b0190610a21565b5f8080610a4b565b9150610a7a81929050610a71565b90610aa7905f1990600802610406565b191690565b81610ab691610a97565b906002021790565b90610ac8816100fe565b9067ffffffffffffffff8211610b8857610aec82610ae68554610539565b85610a40565b602090601f8311600114610b2057918091610b0f935f92610b14575b5050610aac565b90555b565b90915001515f80610b08565b601f19831691610b2f8561056c565b925f5b818110610b7057509160029391856001969410610b56575b50505002019055610b12565b610b66910151601f841690610a97565b90555f8080610b4a565b91936020600181928787015181550195019201610b32565b61060e565b90610b9791610abe565b565b610ba390516100ec565b90565b90610bb260ff91610770565b9181191691161790565b610bc5906100ec565b90565b90565b90610be0610bdb610be792610bbc565b610bc8565b8254610ba6565b9055565b90610c2f60406002610c3594610c0e5f8201610c085f88016109b0565b90610b8d565b610c2760018201610c21602088016109b0565b90610b8d565b019201610b99565b90610bcb565b565b90610c4191610beb565b565b9190610c508382906106d1565b610c63610c5d60216106d8565b91610442565b14158015610d2c575b610d1057610cc783610cb783610cae610ca5878a90610ca0610c98600196610c92610927565b99610991565b5f890161099f565b610991565b6020850161099f565b604083016109a2565b610cc25f33906104e0565b610c37565b610d0b3393919294610cf97f5b9162a7e941845b2c473558379015664e543931531e05255d7db4b58ffd8e80956104d4565b95610d02610082565b948594856107f8565b0390a2565b5f63145a1fdd60e31b815280610d286004820161027a565b0390fd5b50610d388285906106d1565b610d4b610d4560216106d8565b91610442565b1415610c6c565b610d71610d7691610d616104a4565b50610d6a6104a4565b505f6104e0565b6104f6565b90610d8c610d8660028401610518565b156100ec565b610dac57610da9610da360015f850194019361066d565b9261066d565b90565b5f63aba4733960e01b815280610dc46004820161027a565b0390fd5b6002610de0610de692610dd96104a0565b505f6104e0565b01610518565b9056fea26469706673582212201c052cc19e482eaa038c6a3ef56eb732b95f93a3759b08e91b7b4c0cfc56ed7664736f6c634300081e0033","linkReferences":{}},"methodIdentifiers":{"announce(bytes,address,bytes)":"67991de0","getStealthMetaAddress(address)":"98971edb","getStealthMetaAddressBatch(address)":"1b33b60a","isRegistered(address)":"c3c5a547","registerStealthMetaAddress(bytes,bytes)":"7103ac99","totalAnnouncements()":"d917df2d"},"id":36}