{"abi":[{"type":"constructor","inputs":[{"name":"_name","type":"string","internalType":"string"},{"name":"_symbol","type":"string","internalType":"string"},{"name":"_depositVerifier","type":"address","internalType":"address"},{"name":"_transferVerifier","type":"address","internalType":"address"},{"name":"_withdrawVerifier","type":"address","internalType":"address"},{"name":"_collateralManager","type":"address","internalType":"address"},{"name":"_denomination","type":"uint256","internalType":"uint256"}],"stateMutability":"nonpayable"},{"type":"function","name":"COLLATERAL_MANAGER","inputs":[],"outputs":[{"name":"","type":"address","internalType":"contract ICollateralManager"}],"stateMutability":"view"},{"type":"function","name":"DENOMINATION","inputs":[],"outputs":[{"name":"","type":"uint256","internalType":"uint256"}],"stateMutability":"view"},{"type":"function","name":"DEPOSIT_VERIFIER","inputs":[],"outputs":[{"name":"","type":"address","internalType":"contract IGroth16Verifier"}],"stateMutability":"view"},{"type":"function","name":"TRANSFER_VERIFIER","inputs":[],"outputs":[{"name":"","type":"address","internalType":"contract IGroth16Verifier"}],"stateMutability":"view"},{"type":"function","name":"WITHDRAW_VERIFIER","inputs":[],"outputs":[{"name":"","type":"address","internalType":"contract IGroth16Verifier"}],"stateMutability":"view"},{"type":"function","name":"commitmentExists","inputs":[{"name":"commitment","type":"bytes32","internalType":"bytes32"}],"outputs":[{"name":"","type":"bool","internalType":"bool"}],"stateMutability":"view"},{"type":"function","name":"commitmentIndex","inputs":[{"name":"","type":"bytes32","internalType":"bytes32"}],"outputs":[{"name":"","type":"uint256","internalType":"uint256"}],"stateMutability":"view"},{"type":"function","name":"deposit","inputs":[{"name":"amount","type":"uint256","internalType":"uint256"},{"name":"commitment","type":"bytes32","internalType":"bytes32"},{"name":"nullifierHash","type":"bytes32","internalType":"bytes32"},{"name":"encryptedNote","type":"bytes","internalType":"bytes"},{"name":"proofA","type":"uint256[2]","internalType":"uint256[2]"},{"name":"proofB","type":"uint256[2][2]","internalType":"uint256[2][2]"},{"name":"proofC","type":"uint256[2]","internalType":"uint256[2]"}],"outputs":[],"stateMutability":"nonpayable"},{"type":"function","name":"getMerkleRoot","inputs":[],"outputs":[{"name":"","type":"bytes32","internalType":"bytes32"}],"stateMutability":"view"},{"type":"function","name":"getNextIndex","inputs":[],"outputs":[{"name":"","type":"uint256","internalType":"uint256"}],"stateMutability":"view"},{"type":"function","name":"isNullifierSpent","inputs":[{"name":"nullifier","type":"bytes32","internalType":"bytes32"}],"outputs":[{"name":"","type":"bool","internalType":"bool"}],"stateMutability":"view"},{"type":"function","name":"name","inputs":[],"outputs":[{"name":"","type":"string","internalType":"string"}],"stateMutability":"view"},{"type":"function","name":"nullifiers","inputs":[{"name":"","type":"bytes32","internalType":"bytes32"}],"outputs":[{"name":"","type":"bool","internalType":"bool"}],"stateMutability":"view"},{"type":"function","name":"owner","inputs":[],"outputs":[{"name":"","type":"address","internalType":"address"}],"stateMutability":"view"},{"type":"function","name":"renounceOwnership","inputs":[],"outputs":[],"stateMutability":"nonpayable"},{"type":"function","name":"symbol","inputs":[],"outputs":[{"name":"","type":"string","internalType":"string"}],"stateMutability":"view"},{"type":"function","name":"transfer","inputs":[{"name":"inputNullifiers","type":"bytes32[2]","internalType":"bytes32[2]"},{"name":"outputCommitments","type":"bytes32[2]","internalType":"bytes32[2]"},{"name":"merkleRoot","type":"bytes32","internalType":"bytes32"},{"name":"encryptedNotes","type":"bytes[]","internalType":"bytes[]"},{"name":"proofA","type":"uint256[2]","internalType":"uint256[2]"},{"name":"proofB","type":"uint256[2][2]","internalType":"uint256[2][2]"},{"name":"proofC","type":"uint256[2]","internalType":"uint256[2]"}],"outputs":[],"stateMutability":"nonpayable"},{"type":"function","name":"transferOwnership","inputs":[{"name":"newOwner","type":"address","internalType":"address"}],"outputs":[],"stateMutability":"nonpayable"},{"type":"function","name":"withdraw","inputs":[{"name":"amount","type":"uint256","internalType":"uint256"},{"name":"recipient","type":"address","internalType":"address"},{"name":"commitment","type":"bytes32","internalType":"bytes32"},{"name":"nullifierHash","type":"bytes32","internalType":"bytes32"},{"name":"proofA","type":"uint256[2]","internalType":"uint256[2]"},{"name":"proofB","type":"uint256[2][2]","internalType":"uint256[2][2]"},{"name":"proofC","type":"uint256[2]","internalType":"uint256[2]"}],"outputs":[],"stateMutability":"nonpayable"},{"type":"event","name":"Deposit","inputs":[{"name":"commitment","type":"bytes32","indexed":true,"internalType":"bytes32"}],"anonymous":false},{"type":"event","name":"NoteCommitted","inputs":[{"name":"commitment","type":"bytes32","indexed":true,"internalType":"bytes32"},{"name":"index","type":"uint256","indexed":true,"internalType":"uint256"},{"name":"encryptedNote","type":"bytes","indexed":false,"internalType":"bytes"}],"anonymous":false},{"type":"event","name":"NullifierSpent","inputs":[{"name":"nullifier","type":"bytes32","indexed":true,"internalType":"bytes32"}],"anonymous":false},{"type":"event","name":"OwnershipTransferred","inputs":[{"name":"previousOwner","type":"address","indexed":true,"internalType":"address"},{"name":"newOwner","type":"address","indexed":true,"internalType":"address"}],"anonymous":false},{"type":"event","name":"Withdrawal","inputs":[{"name":"nullifier","type":"bytes32","indexed":true,"internalType":"bytes32"}],"anonymous":false},{"type":"error","name":"CommitmentAlreadyExists","inputs":[]},{"type":"error","name":"InvalidArrayLength","inputs":[]},{"type":"error","name":"InvalidCommitment","inputs":[]},{"type":"error","name":"InvalidMerkleRoot","inputs":[]},{"type":"error","name":"InvalidProof","inputs":[]},{"type":"error","name":"NullifierAlreadySpent","inputs":[]},{"type":"error","name":"OwnableInvalidOwner","inputs":[{"name":"owner","type":"address","internalType":"address"}]},{"type":"error","name":"OwnableUnauthorizedAccount","inputs":[{"name":"account","type":"address","internalType":"address"}]},{"type":"error","name":"ReentrancyGuardReentrantCall","inputs":[]},{"type":"error","name":"TransferFailed","inputs":[]}],"bytecode":{"object":"0x6101206040523461009657610021610015610290565b9594909493919361055a565b61002961009b565b612d66610a348239608051818181610c6f01526113d6015260a051818181610be101526127b9015260c05181818161086c0152611ad4015260e05181818161077a0152818161144c0152818161153c015281816115a00152611be4015261010051816108f30152612d6690f35b6100a1565b60405190565b5f80fd5b601f801991011690565b634e487b7160e01b5f52604160045260245ffd5b906100cd906100a5565b810190811060018060401b038211176100e557604052565b6100af565b906100fd6100f661009b565b92836100c3565b565b5f80fd5b5f80fd5b5f80fd5b5f80fd5b60018060401b03811161012b576101276020916100a5565b0190565b6100af565b90825f9392825e0152565b9092919261015061014b8261010f565b6100ea565b9381855260208501908284011161016c5761016a92610130565b565b61010b565b9080601f8301121561018f5781602061018c9351910161013b565b90565b610107565b60018060a01b031690565b6101a890610194565b90565b6101b48161019f565b036101bb57565b5f80fd5b905051906101cc826101ab565b565b90565b6101da816101ce565b036101e157565b5f80fd5b905051906101f2826101d1565b565b60e08183031261028b575f81015160018060401b038111610286578261021b918301610171565b92602082015160018060401b038111610281578361023a918401610171565b9261024881604085016101bf565b9261025682606083016101bf565b9261027e61026784608085016101bf565b936102758160a086016101bf565b9360c0016101e5565b90565b610103565b610103565b6100ff565b6102ae61379a803803806102a3816100ea565b9283398101906101f4565b90919293949596565b5190565b634e487b7160e01b5f52602260045260245ffd5b90600160028304921680156102ef575b60208310146102ea57565b6102bb565b91607f16916102df565b5f5260205f2090565b601f602091010490565b1b90565b9190600861032b9102916103255f198461030c565b9261030c565b9181191691161790565b90565b61034c610347610351926101ce565b610335565b6101ce565b90565b90565b919061036d61036861037593610338565b610354565b908354610310565b9055565b5f90565b61038f91610389610379565b91610357565b565b5b81811061039d575050565b806103aa5f60019361037d565b01610392565b9190601f81116103c0575b505050565b6103cc6103f1936102f9565b9060206103d884610302565b830193106103f9575b6103ea90610302565b0190610391565b5f80806103bb565b91506103ea819290506103e1565b1c90565b9061041b905f1990600802610407565b191690565b8161042a9161040b565b906002021790565b9061043c816102b7565b9060018060401b0382116104fa5761045e8261045885546102cf565b856103b0565b602090601f831160011461049257918091610481935f92610486575b5050610420565b90555b565b90915001515f8061047a565b601f198316916104a1856102f9565b925f5b8181106104e2575091600293918560019694106104c8575b50505002019055610484565b6104d8910151601f84169061040b565b90555f80806104bc565b919360206001819287870151815501950192016104a4565b6100af565b9061050991610432565b565b61051f61051a61052492610194565b610335565b610194565b90565b6105309061050b565b90565b61053c90610527565b90565b6105489061050b565b90565b6105549061053f565b90565b90565b9261058e6105a69695936105896105969461058261059e9861057b33610628565b60086104ff565b60096104ff565b610533565b608052610533565b60a052610533565b60c05261054b565b60e052610100526105bf6105ba6002610557565b61076c565b565b90565b6105d86105d36105dd926105c1565b610335565b6101ce565b90565b6105ea60016105c4565b90565b5f1b90565b906105fe5f19916105ed565b9181191691161790565b9061061d61061861062492610338565b610354565b82546105f2565b9055565b61063190610692565b61064361063c6105e0565b6001610608565b565b90565b61065c61065761066192610645565b610335565b610194565b90565b61066d90610648565b90565b6106799061019f565b9052565b9190610690905f60208501940190610670565b565b806106ad6106a76106a25f610664565b61019f565b9161019f565b146106bd576106bb90610826565b565b6106e06106c95f610664565b5f918291631e4fbdf760e01b83526004830161067d565b0390fd5b6106f86106f36106fd92610645565b610335565b6101ce565b90565b90565b61071761071261071c92610700565b610335565b6101ce565b90565b6107296014610703565b90565b90565b6107389061072c565b90565b5f1c90565b6107499061073b565b90565b9061076161075c6107689261072f565b610740565b82546105f2565b9055565b61079d9061078461077c5f6106e4565b5f8301610608565b600361079661079161071f565b61092a565b910161074c565b565b60018060a01b031690565b6107b66107bb9161073b565b61079f565b90565b6107c890546107aa565b90565b906107dc60018060a01b03916105ed565b9181191691161790565b6107ef9061050b565b90565b6107fb906107e6565b90565b90565b9061081661081161081d926107f2565b6107fe565b82546107cb565b9055565b5f0190565b61082f5f6107be565b610839825f610801565b9061086d6108677f8be0079c531659141344cd1fd0a4f28419497f9722a3daafe3b4186f6b6457e0936107f2565b916107f2565b9161087661009b565b8061088081610821565b0390a3565b5f90565b61089d6108986108a292610645565b6105ed565b61072c565b90565b6108ae5f610889565b90565b90565b6108c06108c59161072c565b6108b1565b9052565b6020816108db6108e3938396956108b4565b0180926108b4565b0190565b60200190565b5190565b634e487b7160e01b5f52601160045260245ffd5b61091461091a919392936101ce565b926101ce565b820391821161092557565b6108f1565b610932610885565b50806109466109405f6106e4565b916101ce565b146109de578061095f61095960016105c4565b916101ce565b1461098d5761097b6109809161097560016105c4565b90610905565b61092a565b61098a90806109ea565b90565b506109966108a5565b6109c86109a16108a5565b916109b96109ad61009b565b938492602084016108c9565b602082018103825203826100c3565b6109da6109d4826108ed565b916108e7565b2090565b506109e76108a5565b90565b610a1d906109f6610885565b50610a0e610a0261009b565b938492602084016108c9565b602082018103825203826100c3565b610a2f610a29826108ed565b916108e7565b209056fe60806040526004361015610013575b610d17565b61001d5f3561014c565b8063012d09b51461014757806306fdde03146101425780630eb7606f1461013d5780632997e86b146101385780634959065714610133578063715018a61461012e5780637731326e14610129578063796a445514610124578063863078651461011f578063878342e61461011a5780638b01429d146101155780638da5cb5b1461011057806395d89b411461010b57806396421dd814610106578063aa34230d14610101578063b6a9496c146100fc578063d5a4e325146100f7578063e21cd50e146100f25763f2fde38b0361000e57610ce4565b610c91565b610c38565b610c03565b610ba2565b610a86565b6109bc565b610978565b610915565b6108bc565b610835565b610800565b61073b565b6105e3565b6105a9565b610552565b61049b565b610466565b610235565b60e01c90565b60405190565b5f80fd5b5f80fd5b5f80fd5b90565b61017081610164565b0361017757565b5f80fd5b9050359061018882610167565b565b906020828203126101a3576101a0915f0161017b565b90565b61015c565b6101b190610164565b90565b906101be906101a8565b5f5260205260405f2090565b1c90565b90565b6101e19060086101e693026101ca565b6101ce565b90565b906101f491546101d1565b90565b61020d906102086007915f926101b4565b6101e9565b90565b90565b61021c90610210565b9052565b9190610233905f60208501940190610213565b565b346102655761026161025061024b36600461018a565b6101f7565b610258610152565b91829182610220565b0390f35b610158565b5f91031261027457565b61015c565b634e487b7160e01b5f525f60045260245ffd5b634e487b7160e01b5f52602260045260245ffd5b90600160028304921680156102c0575b60208310146102bb57565b61028c565b91607f16916102b0565b60209181520190565b5f5260205f2090565b905f92918054906102f66102ef836102a0565b80946102ca565b916001811690815f1461034d5750600114610311575b505050565b61031e91929394506102d3565b915f925b81841061033557505001905f808061030c565b60018160209295939554848601520191019290610322565b92949550505060ff19168252151560200201905f808061030c565b90610372916102dc565b90565b601f801991011690565b634e487b7160e01b5f52604160045260245ffd5b9061039d90610375565b810190811067ffffffffffffffff8211176103b757604052565b61037f565b906103dc6103d5926103cc610152565b93848092610368565b0383610393565b565b905f106103f1576103ee906103bc565b90565b610279565b61040260085f906103de565b90565b5190565b60209181520190565b90825f9392825e0152565b61043c61044560209361044a9361043381610405565b93848093610409565b95869101610412565b610375565b0190565b6104639160208201915f81840391015261041d565b90565b346104965761047636600461026a565b6104926104816103f6565b610489610152565b9182918261044e565b0390f35b610158565b346104cb576104ab36600461026a565b6104c76104b6610d22565b6104be610152565b91829182610220565b0390f35b610158565b906104da906101a8565b5f5260205260405f2090565b60ff1690565b6104fc90600861050193026101ca565b6104e6565b90565b9061050f91546104ec565b90565b610528906105236006915f926104d0565b610504565b90565b151590565b6105399061052b565b9052565b9190610550905f60208501940190610530565b565b346105825761057e61056d61056836600461018a565b610512565b610575610152565b9182918261053d565b0390f35b610158565b61059090610164565b9052565b91906105a7905f60208501940190610587565b565b346105d9576105b936600461026a565b6105d56105c4610d44565b6105cc610152565b91829182610594565b0390f35b610158565b5f0190565b34610611576105f336600461026a565b6105fb610db2565b610603610152565b8061060d816105de565b0390f35b610158565b61061f81610210565b0361062657565b5f80fd5b9050359061063782610616565b565b5f80fd5b5f80fd5b5f80fd5b909182601f8301121561067f5781359167ffffffffffffffff831161067a57602001926001830284011161067557565b610641565b61063d565b610639565b9190602060020283011161069457565b610641565b919060406002028301116106a957565b610641565b9061018082820312610736576106c6815f840161062a565b926106d4826020850161017b565b926106e2836040830161017b565b92606082013567ffffffffffffffff81116107315781610703918401610645565b92909361072e6107168460808501610684565b936107248160c08601610699565b9361014001610684565b90565b610160565b61015c565b346107735761075d61074e3660046106ae565b9695909594919493929361185a565b610765610152565b8061076f816105de565b0390f35b610158565b7f000000000000000000000000000000000000000000000000000000000000000090565b60018060a01b031690565b90565b6107be6107b96107c39261079c565b6107a7565b61079c565b90565b6107cf906107aa565b90565b6107db906107c6565b90565b6107e7906107d2565b9052565b91906107fe905f602085019401906107de565b565b346108305761081036600461026a565b61082c61081b610778565b610823610152565b918291826107eb565b0390f35b610158565b346108655761086161085061084b36600461018a565b611870565b610858610152565b9182918261053d565b0390f35b610158565b7f000000000000000000000000000000000000000000000000000000000000000090565b610897906107c6565b90565b6108a39061088e565b9052565b91906108ba905f6020850194019061089a565b565b346108ec576108cc36600461026a565b6108e86108d761086a565b6108df610152565b918291826108a7565b0390f35b610158565b7f000000000000000000000000000000000000000000000000000000000000000090565b346109455761092536600461026a565b6109416109306108f1565b610938610152565b91829182610220565b0390f35b610158565b6109539061079c565b90565b61095f9061094a565b9052565b9190610976905f60208501940190610956565b565b346109a85761098836600461026a565b6109a46109936118b5565b61099b610152565b91829182610963565b0390f35b610158565b6109b960095f906103de565b90565b346109ec576109cc36600461026a565b6109e86109d76109ad565b6109df610152565b9182918261044e565b0390f35b610158565b6109fa8161094a565b03610a0157565b5f80fd5b90503590610a12826109f1565b565b61018081830312610a8157610a2b825f830161062a565b92610a398360208401610a05565b92610a47816040850161017b565b92610a55826060830161017b565b92610a7e610a668460808501610684565b93610a748160c08601610699565b9361014001610684565b90565b61015c565b34610abb57610aa5610a99366004610a14565b95949094939193611d18565b610aad610152565b80610ab7816105de565b0390f35b610158565b91906020600202830111610ad057565b610641565b909182601f83011215610b0f5781359167ffffffffffffffff8311610b0a576020019260208302840111610b0557565b610641565b61063d565b610639565b906101c082820312610b9d57610b2c815f8401610ac0565b92610b3a8260408501610ac0565b92610b48836080830161017b565b9260a082013567ffffffffffffffff8111610b985781610b69918401610ad5565b929093610b95610b7c8460c08501610684565b93610b8b816101008601610699565b9361018001610684565b90565b610160565b61015c565b34610bda57610bc4610bb5366004610b14565b96959095949194939293611d80565b610bcc610152565b80610bd6816105de565b0390f35b610158565b7f000000000000000000000000000000000000000000000000000000000000000090565b34610c3357610c1336600461026a565b610c2f610c1e610bdf565b610c26610152565b918291826108a7565b0390f35b610158565b34610c6857610c64610c53610c4e36600461018a565b611d92565b610c5b610152565b9182918261053d565b0390f35b610158565b7f000000000000000000000000000000000000000000000000000000000000000090565b34610cc157610ca136600461026a565b610cbd610cac610c6d565b610cb4610152565b918291826108a7565b0390f35b610158565b90602082820312610cdf57610cdc915f01610a05565b90565b61015c565b34610d1257610cfc610cf7366004610cc6565b611e16565b610d04610152565b80610d0e816105de565b0390f35b610158565b5f80fd5b5f90565b90565b610d2a610d1b565b50610d3d610d386002610d1f565b611e42565b90565b5f90565b610d4c610d40565b50610d5f610d5a6002610d1f565b611e59565b90565b610d6a611e71565b610d72610d9f565b565b90565b610d8b610d86610d9092610d74565b6107a7565b61079c565b90565b610d9c90610d77565b90565b610db0610dab5f610d93565b611f09565b565b610dba610d62565b565b90610dd497969594939291610dcf611f75565b611340565b610ddc611fda565b565b5f1c90565b610def610df491610dde565b6104e6565b90565b610e019054610de3565b90565b90565b610e1b610e16610e2092610e04565b6107a7565b610210565b90565b90610e36610e2f610152565b9283610393565b565b67ffffffffffffffff8111610e505760208091020190565b61037f565b90610e67610e6283610e38565b610e23565b918252565b369037565b90610e96610e7e83610e55565b92602080610e8c8693610e38565b9201910390610e6c565b565b610eac610ea7610eb192610210565b6107a7565b610210565b90565b610ec0610ec591610dde565b610e98565b90565b634e487b7160e01b5f52603260045260245ffd5b5190565b90610eea82610edc565b811015610efb576020809102010190565b610ec8565b610f14610f0f610f1992610d74565b6107a7565b610210565b90565b90610f2690610210565b9052565b90565b610f41610f3c610f4692610f2a565b6107a7565b610210565b90565b60e01b90565b610f588161052b565b03610f5f57565b5f80fd5b90505190610f7082610f4f565b565b90602082820312610f8b57610f88915f01610f63565b90565b61015c565b9037565b610fa091604091610f90565b565b50600290565b905090565b90565b610fbc91604091610f90565b565b90610fcb81604093610fb0565b0190565b5090565b60400190565b610ff5610fef610fe883610fa2565b8094610fa8565b91610fad565b805f925b848410611007575050505050565b61102561101f60019261101a8686610fcf565b610fbe565b93610fd3565b93019291610ff9565b60209181520190565b60200190565b61104690610210565b9052565b906110578160209361103d565b0190565b60200190565b9061107e61107861107184610edc565b809361102e565b92611037565b905f5b81811061108e5750505090565b9091926110a76110a1600192865161104a565b9461105b565b9101919091611081565b90926110e5906110db6110f396946110d16101208601975f870190610f94565b6040850190610fd9565b60c0830190610f94565b610100818403910152611061565b90565b6110fe610152565b3d5f823e3d90fd5b61110f906107c6565b90565b9050519061111f826109f1565b565b9060208282031261113a57611137915f01611112565b90565b61015c565b611148906107aa565b90565b6111549061113f565b90565b611160906107c6565b90565b60409061118c611193949695939661118260608401985f850190610956565b6020830190610956565b0190610213565b565b5f7f5472616e73666572206661696c65640000000000000000000000000000000000910152565b6111c9600f602092610409565b6111d281611195565b0190565b6111eb9060208101905f8183039101526111bc565b90565b156111f557565b6111fd610152565b62461bcd60e51b815280611213600482016111d6565b0390fd5b91602061123892949361123160408201965f830190610956565b0190610213565b565b60409061126361126a949695939661125960608401985f850190610956565b6020830190610213565b0190610587565b565b5f1b90565b9061127d60ff9161126c565b9181191691161790565b6112909061052b565b90565b90565b906112ab6112a66112b292611287565b611293565b8254611271565b9055565b906112c25f199161126c565b9181191691161790565b90565b906112e46112df6112eb92610e98565b6112cc565b82546112b6565b9055565b60209181520190565b90825f939282370152565b919061131d8161131681611322956112ef565b80956112f8565b610375565b0190565b909161133d9260208301925f818503910152611303565b90565b9294909691939561135088612004565b61183e57611368611363600687906104d0565b610df7565b6118225760209161141761138461137f6002610e07565b610e71565b916113a96113918c610eb4565b6113a48561139e5f610f00565b90610ee0565b610f1c565b6113ce6113b589610eb4565b6113c9856113c36001610f2d565b90610ee0565b610f1c565b6114226113fa7f000000000000000000000000000000000000000000000000000000000000000061088e565b9363c32e370e92959761140b610152565b98899788968796610f49565b8652600486016110b1565b03915afa801561181d5761143e915f916117ef575b501561052b565b6117d3576114a260206114707f00000000000000000000000000000000000000000000000000000000000000006107d2565b63691bcc889061149761148230611106565b9261148b610152565b95869485938493610f49565b835260048301610963565b03915afa9081156117ce575f916117a0575b506114c66114c18261114b565b611157565b9060206323b872dd9233906114f75f6114de30611106565b96611502896114eb610152565b998a9788968795610f49565b855260048501611163565b03925af190811561179b5761152561152a9261152f945f9161176d575b506111ee565b61114b565b611157565b602063095ea7b3916115607f00000000000000000000000000000000000000000000000000000000000000006107d2565b9061157e5f8695611589611572610152565b97889687958694610f49565b845260048401611217565b03925af180156117685761173c575b5060206115c47f00000000000000000000000000000000000000000000000000000000000000006107d2565b91636b7c6d20926115f25f6115d830611106565b93956115fd8b6115e6610152565b98899788968795610f49565b85526004850161123a565b03925af1801561173757611619915f91611709575b501561052b565b6116ed576116339061162e60019160066104d0565b611296565b6116476116406002610d1f565b84906122ce565b61165c81611657600787906101b4565b6112cf565b8390919261169361168d7f7de4af0af526d60801c09e058cb312c537ebd0ac1fc7b85f5072a5df2a48930b936101a8565b93610e98565b936116a861169f610152565b92839283611326565b0390a36116d57f743d3067919fbf32a17803b5c0a9dd39d48691e1376031b691cc173f593b0933916101a8565b906116de610152565b806116e8816105de565b0390a2565b5f6312171d8360e31b815280611705600482016105de565b0390fd5b61172a915060203d8111611730575b6117228183610393565b810190610f72565b5f611612565b503d611718565b6110f6565b61175c9060203d8111611761575b6117548183610393565b810190610f72565b611598565b503d61174a565b6110f6565b61178e915060203d8111611794575b6117868183610393565b810190610f72565b5f61151f565b503d61177c565b6110f6565b6117c1915060203d81116117c7575b6117b98183610393565b810190611121565b5f6114b4565b503d6117af565b6110f6565b5f6309bde33960e01b8152806117eb600482016105de565b0390fd5b611810915060203d8111611816575b6118088183610393565b810190610f72565b5f611437565b503d6117fe565b6110f6565b5f63b115d85760e01b81528061183a600482016105de565b0390fd5b5f63145718a760e01b815280611856600482016105de565b0390fd5b9061186a97969594939291610dbc565b565b5f90565b6118829061187c61186c565b50612004565b90565b5f90565b60018060a01b031690565b6118a06118a591610dde565b611889565b90565b6118b29054611894565b90565b6118bd611885565b506118c75f6118a8565b90565b906118e19695949392916118dc611f75565b6119d2565b6118e9611fda565b565b90565b6119026118fd611907926118eb565b6107a7565b610210565b90565b90565b61191961191e91610dde565b61190a565b90565b61192b905461190d565b90565b611937906107aa565b90565b61194e6119496119539261079c565b6107a7565b610210565b90565b90565b61196d61196861197292611956565b6107a7565b610210565b90565b90565b61198c61198761199192611975565b6107a7565b610210565b90565b6119c96119d0946119bf6060949897956119b5608086019a5f870190610956565b6020850190610956565b6040830190610213565b0190610587565b565b9592949093916119ec6119e7600688906104d0565b610df7565b611cfc57611b15602093611aa7611a8e611a0e611a0960056118ee565b610e71565b94611a3f611a27611a226003600201611921565b610eb4565b611a3a88611a345f610f00565b90610ee0565b610f1c565b611a5c8c611a5788611a516001610f2d565b90610ee0565b610f1c565b611a89611a70611a6b8c61192e565b61193a565b611a8488611a7e6002610e07565b90610ee0565b610f1c565b610eb4565b611aa285611a9c6003611959565b90610ee0565b610f1c565b611acc611ab389610eb4565b611ac785611ac16004611978565b90610ee0565b610f1c565b611b20611af87f000000000000000000000000000000000000000000000000000000000000000061088e565b9363c32e370e929597611b09610152565b98899788968796610f49565b8652600486016110b1565b03915afa8015611cf757611b3c915f91611cc9575b501561052b565b611cad57602091611b596001611b54600684906104d0565b611296565b80611b847f2d8b76eb247945151bd870d531c84c5420f53e3cb9c0ab3b350f46bb09362096916101a8565b90611b8d610152565b80611b97816105de565b0390a280611bc57f0ce781a18c10c8289803c7c4cfd532d797113c4b41c9701ffad7d0a632ac555b916101a8565b90611bce610152565b80611bd8816105de565b0390a2611c315f611c087f00000000000000000000000000000000000000000000000000000000000000006107d2565b92611c3c63728128cf91611c1b30611106565b9698611c25610152565b998a9889978896610f49565b865260048601611994565b03925af18015611ca857611c58915f91611c7a575b501561052b565b611c5e57565b5f6312171d8360e31b815280611c76600482016105de565b0390fd5b611c9b915060203d8111611ca1575b611c938183610393565b810190610f72565b5f611c51565b503d611c89565b6110f6565b5f6309bde33960e01b815280611cc5600482016105de565b0390fd5b611cea915060203d8111611cf0575b611ce28183610393565b810190610f72565b5f611b35565b503d611cd8565b6110f6565b5f63b115d85760e01b815280611d14600482016105de565b0390fd5b90611d279695949392916118ca565b565b90611d4197969594939291611d3c611f75565b611d4b565b611d49611fda565b565b92939496611d75929196611d7e98611d68868a898b9188936124db565b8593899091929394612663565b929091926128f8565b565b90611d9097969594939291611d29565b565b611da9611dae91611da161186c565b5060066104d0565b610df7565b90565b611dc290611dbd611e71565b611dc4565b565b80611ddf611dd9611dd45f610d93565b61094a565b9161094a565b14611def57611ded90611f09565b565b611e12611dfb5f610d93565b5f918291631e4fbdf760e01b835260048301610963565b0390fd5b611e1f90611db1565b565b611e2d611e3291610dde565b6101ce565b90565b611e3f9054611e21565b90565b5f611e5691611e4f610d1b565b5001611e35565b90565b6003611e6e91611e67610d40565b5001611921565b90565b611e796118b5565b611e92611e8c611e87612bce565b61094a565b9161094a565b03611e9957565b611ebb611ea4612bce565b5f91829163118cdaa760e01b835260048301610963565b0390fd5b90611ed060018060a01b039161126c565b9181191691161790565b611ee3906107c6565b90565b90565b90611efe611ef9611f0592611eda565b611ee6565b8254611ebf565b9055565b611f125f6118a8565b611f1c825f611ee9565b90611f50611f4a7f8be0079c531659141344cd1fd0a4f28419497f9722a3daafe3b4186f6b6457e093611eda565b91611eda565b91611f59610152565b80611f63816105de565b0390a3565b611f726002610e07565b90565b611f7f6001611e35565b611f98611f92611f8d611f68565b610210565b91610210565b14611fb157611faf611fa8611f68565b60016112cf565b565b5f633ee5aeb560e01b815280611fc9600482016105de565b0390fd5b611fd76001610f2d565b90565b611fec611fe5611fcd565b60016112cf565b565b90611ff890610f00565b5f5260205260405f2090565b61200c61186c565b5061202161201c600783906101b4565b611e35565b61203361202d5f610f00565b91610210565b11908115612040575b5090565b905061206a61206461205f61205a60016002015f90611fee565b611921565b610164565b91610164565b1480612077575b5f61203c565b506120845f600201611e35565b6120966120905f610f00565b91610210565b11612071565b90565b6120b36120ae6120b89261209c565b6107a7565b610210565b90565b6120c5601461209f565b90565b634e487b7160e01b5f52601160045260245ffd5b6120e590610210565b60ff81116120f35760020a90565b6120c8565b6121086121036120bb565b6120dc565b90565b5f7f4d65726b6c65547265653a20747265652069732066756c6c0000000000000000910152565b61213f6018602092610409565b6121488161210b565b0190565b6121619060208101905f818303910152612132565b90565b1561216b57565b612173610152565b62461bcd60e51b8152806121896004820161214c565b0390fd5b9061219790610e98565b5f5260205260405f2090565b6121ac90610dde565b90565b906121c46121bf6121cb926101a8565b6121a3565b82546112b6565b9055565b60016121db9101610210565b90565b906121e890610e98565b5f5260205260405f2090565b634e487b7160e01b5f52601260045260245ffd5b61221461221a91610210565b91610210565b908115612225570690565b6121f4565b61223961223f91939293610210565b92610210565b820391821161224a57565b6120c8565b61225e61226491939293610210565b92610210565b820180921161226f57565b6120c8565b61228861228361228d92610d74565b61126c565b610164565b90565b61229c6122a291610210565b91610210565b9081156122ad570490565b6121f4565b6122bb90610210565b5f1981146122c95760010190565b6120c8565b9190916122d9610d1b565b506123076122e85f8301611e35565b6123016122fb6122f66120f8565b610210565b91610210565b10612164565b6123125f8201611e35565b9261232a8161232560018501879061218d565b6121af565b92806123355f610f00565b945b8561235161234b6123466120bb565b610210565b91610210565b1015612483576124248161237f61242a9361237a61237360028a018c906121de565b889061218d565b6121af565b612387610d40565b5061239c856123966002610e07565b90612208565b6123ae6123a85f610f00565b91610210565b145f1461244257612412906123eb6123e66123d3886123cd6001610f2d565b9061224f565b6123e160028b018d906121de565b61218d565b611921565b90816124076124016123fc5f612274565b610164565b91610164565b14612431575b612c1b565b935b61241e6002610e07565b90612290565b956121cf565b9491612337565b905061243c89612c70565b9061240d565b61247d906124786124736124608861245a6001610f2d565b9061222a565b61246e60028b018d906121de565b61218d565b611921565b612c1b565b93612414565b6124b2939195505f925061249a90600383016121af565b016124ac6124a782611e35565b6122b2565b906112cf565b565b5090565b9060028110156124c9576020020190565b610ec8565b356124d881610167565b90565b91926124e791936124b4565b6124fa6124f46002610e07565b91610210565b036126475761252d612528600661252261251d856125175f610f00565b906124b8565b6124ce565b906104d0565b610df7565b90811561260f575b506125f35761255d6125586125538361254d5f610f00565b906124b8565b6124ce565b612004565b9081156125c7575b506125ab5761258861258261257d6003600201611921565b610164565b91610164565b0361258f57565b5f639dd854d360e01b8152806125a7600482016105de565b0390fd5b5f63145718a760e01b8152806125c3600482016105de565b0390fd5b6125ed91506125e36125e8916125dd6001610f2d565b906124b8565b6124ce565b612004565b5f612565565b5f63b115d85760e01b81528061260b600482016105de565b0390fd5b612641915061263c9061263661263160069261262b6001610f2d565b906124b8565b6124ce565b906104d0565b610df7565b5f612535565b5f634ec4810560e11b81528061265f600482016105de565b0390fd5b949291946005612672906118ee565b61267b90610e71565b9561268590610eb4565b865f61269090610f00565b61269991610ee0565b906126a391610f1c565b805f6126ae90610f00565b6126b7916124b8565b6126c0906124ce565b6126c990610eb4565b8660016126d590610f2d565b6126de91610ee0565b906126e891610f1c565b60016126f390610f2d565b6126fc916124b8565b612705906124ce565b61270e90610eb4565b85600261271a90610e07565b61272391610ee0565b9061272d91610f1c565b805f61273890610f00565b612741916124b8565b61274a906124ce565b61275390610eb4565b85600361275f90611959565b61276891610ee0565b9061277291610f1c565b600161277d90610f2d565b612786916124b8565b61278f906124ce565b61279890610eb4565b8460046127a490611978565b6127ad91610ee0565b906127b791610f1c565b7f00000000000000000000000000000000000000000000000000000000000000006127e19061088e565b9263c32e370e919092946127f3610152565b9586946128008695610f49565b85526004850193612810946110b1565b03815a93602094fa801561288057612830915f91612852575b501561052b565b61283657565b5f6309bde33960e01b81528061284e600482016105de565b0390fd5b612873915060203d8111612879575b61286b8183610393565b810190610f72565b5f612829565b503d612861565b6110f6565b5f80fd5b5f80fd5b5f80fd5b9035906001602003813603038212156128d3570180359067ffffffffffffffff82116128ce576020019160018202360383136128c957565b61288d565b612889565b612885565b908210156128f35760206128ef9202810190612891565b9091565b610ec8565b926129d56129d0612b7e9395612934600161292f60066129296129248661291e5f610f00565b906124b8565b6124ce565b906104d0565b611296565b6129656001612960600661295a6129558661294f6001610f2d565b906124b8565b6124ce565b906104d0565b611296565b61298061297b826129755f610f00565b906124b8565b6124ce565b6129aa7f2d8b76eb247945151bd870d531c84c5420f53e3cb9c0ab3b350f46bb09362096916101a8565b906129b3610152565b806129bd816105de565b0390a26129ca6001610f2d565b906124b8565b6124ce565b6129ff7f2d8b76eb247945151bd870d531c84c5420f53e3cb9c0ab3b350f46bb09362096916101a8565b90612a08610152565b80612a12816105de565b0390a2612a43612a226002610d1f565b612a3d612a3887612a325f610f00565b906124b8565b6124ce565b906122ce565b612a7281612a6d6007612a67612a628a612a5c5f610f00565b906124b8565b6124ce565b906101b4565b6112cf565b612a8d612a8886612a825f610f00565b906124b8565b6124ce565b90612aa28584612a9c5f610f00565b916128d8565b612ad8612ad27f7de4af0af526d60801c09e058cb312c537ebd0ac1fc7b85f5072a5df2a48930b959395936101a8565b93610e98565b93612aed612ae4610152565b92839283611326565b0390a3612b6b612b66612b25612b036002610d1f565b612b1f612b1a89612b146001610f2d565b906124b8565b6124ce565b906122ce565b95612b5687612b516007612b4b612b4686612b406001610f2d565b906124b8565b6124ce565b906101b4565b6112cf565b612b606001610f2d565b906124b8565b6124ce565b939290612b786001610f2d565b916128d8565b612bb4612bae7f7de4af0af526d60801c09e058cb312c537ebd0ac1fc7b85f5072a5df2a48930b959395936101a8565b93610e98565b93612bc9612bc0610152565b92839283611326565b0390a3565b612bd6611885565b503390565b90565b612bea612bef91610164565b612bdb565b9052565b602081612c05612c0d93839695612bde565b018092612bde565b0190565b60200190565b5190565b612c4e90612c27610d40565b50612c3f612c33610152565b93849260208401612bf3565b60208201810382520382610393565b612c60612c5a82612c17565b91612c11565b2090565b612c6d5f612274565b90565b612c78610d40565b5080612c8c612c865f610f00565b91610210565b14612d245780612ca5612c9f6001610f2d565b91610210565b14612cd357612cc1612cc691612cbb6001610f2d565b9061222a565b612c70565b612cd09080612c1b565b90565b50612cdc612c64565b612d0e612ce7612c64565b91612cff612cf3610152565b93849260208401612bf3565b60208201810382520382610393565b612d20612d1a82612c17565b91612c11565b2090565b50612d2d612c64565b9056fea2646970667358221220c03ceab836e8d4812568263c0be58fc60524c5e22b4c2c710b15b175da22020e64736f6c634300081e0033","linkReferences":{}},"methodIdentifiers":{"COLLATERAL_MANAGER()":"796a4455","DENOMINATION()":"8b01429d","DEPOSIT_VERIFIER()":"e21cd50e","TRANSFER_VERIFIER()":"b6a9496c","WITHDRAW_VERIFIER()":"878342e6","commitmentExists(bytes32)":"86307865","commitmentIndex(bytes32)":"012d09b5","deposit(uint256,bytes32,bytes32,bytes,uint256[2],uint256[2][2],uint256[2])":"7731326e","getMerkleRoot()":"49590657","getNextIndex()":"0eb7606f","isNullifierSpent(bytes32)":"d5a4e325","name()":"06fdde03","nullifiers(bytes32)":"2997e86b","owner()":"8da5cb5b","renounceOwnership()":"715018a6","symbol()":"95d89b41","transfer(bytes32[2],bytes32[2],bytes32,bytes[],uint256[2],uint256[2][2],uint256[2])":"aa34230d","transferOwnership(address)":"f2fde38b","withdraw(uint256,address,bytes32,bytes32,uint256[2],uint256[2][2],uint256[2])":"96421dd8"},"id":37}