{"abi":[{"type":"function","name":"verifyProof","inputs":[{"name":"_pA","type":"uint256[2]","internalType":"uint256[2]"},{"name":"_pB","type":"uint256[2][2]","internalType":"uint256[2][2]"},{"name":"_pC","type":"uint256[2]","internalType":"uint256[2]"},{"name":"_pubSignals","type":"uint256[5]","internalType":"uint256[5]"}],"outputs":[{"name":"","type":"bool","internalType":"bool"}],"stateMutability":"view"}],"bytecode":{"object":"0x608060405234601c57600e6020565b6106a261002b82396106a290f35b6026565b60405190565b5f80fdfe60806040526004361015610013575b6100e3565b61001d5f3561002c565b6334baeab90361000e576100c5565b60e01c90565b5f80fd5b5f80fd5b5f80fd5b9190602060020283011161004e57565b61003a565b9190604060020283011161006357565b61003a565b9190602060050283011161007857565b61003a565b6101a0818303126100c057610094825f830161003e565b926100bd6100a58460408501610053565b936100b38160c0860161003e565b9361010001610068565b90565b610036565b346100de576100d536600461007d565b92919091610605565b610032565b5f80fd5b5f90565b7f30644e72e131a029b85045b68181585d2833e84879b9709143e1f593f0000001111561011457565b5f805260205ff35b919290926040519384526020840152604083015260408260608160076107d05a03fa1561016f5760806040928251848201526020830151606082015260066107d05a03fa1561016757565b5f805260205ff35b5f805260205ff35b60209394917f30644e72e131a029b85045b68181585d97816a916871ca8d3c208c16d87cfd478560609361037e60808701997f0f52d178b8a98152d69615529db278966a0393f28a1072793d531d5b1cc00fe37f03c903c5a9db92b1d30bb2e4cee3444208e460f5c9ae4050b52953e8d02d9f9c60805f8b01937f1a2fb946f1244080cc839eb135eb9645535eb07dd80051131c4a76ee245ffda685527f0b42b4619449cca17d4138d6e22efbd7b51adfcd2e6a06f4aff943288adfa160888601526102885f8201357f0112b170417a52436b3969460af34acdcb20d2d0fb662a00059e424072b3a78f7f14fcd4d1b8c564c1add25e0ca0954f2f56fde6d221587b58b87ba94e834ddfc78861011c565b6102d7888201357f1d5c72d7b28e2dd6bea0d0b3c2b87058ec679364e47f5c047a83402f5fa4fd077f24e185fb24cf4b6acccf4338af2d54cec9b583267f7944bca3c8dc5cb327102e8861011c565b61032760408201357f0cccfe0b873da6ff8804f0b577a83e3f5d4b1aa1360a77815b21208bceca79ba7f1fcc8567937d7ac1af1a71460c1e8516105b5aed679bbcfb59265600522fa6d58861011c565b6103768b8201357f1fa4f7a3a56eb54965055d1c6fd30105ad5c004cbc2e673ef282a947cdd5a5bd7f0ef7bae5cb50e07fa2f02ff4cda6cb39d556b910e7060b15ee8bf110a1c5ea268861011c565b01359261011c565b8035895201358103068587015280356040870152848101358287015260408101356080870152013560a08501527f2098962e28df7d2880a9ce2664d7242cc1cc50b358eae2c8d70667c78b11162d60c08501527f0b0748041423a47db1a80bd2ac76e68529222b7e7f777d10aadc0c9bf76c548160e08501527f03133c7767f3a073a80b8d28afb1d95b1ac265d3dfc38bd81fa9b9039e6ccfb86101008501527f1b68d959d2f9ff8e9bb6b9e0224a7526d295ef47d3219df9c25899a4e78c0be76101208501527f250788926bfac6198946e286d624a148d3aba1fd23ca94b8b29f19ff0445eff36101408501527f163188a95febb408548605994ce6abd89b0d056d85382b5bc3af5c14c778b4fc6101608501525f810151610180850152825f0101516101a08401527f198e9393920d483a7260bfb731fb5d25f1aa493335a9e71297e485b7aef312c26101c08401527f1800deef121f1e76426a00665e5c4479674322d4f75edadd46debd5cd992f6ed6101e08401527f090689d0585ff075ec9e99ad690c3395bc4b313370b38ef355acdadcd122975b6102008401527f12c85ea5db8c6deb4aab71808dcb408fe3d1e7690c43d37b4ce6cc0166fa7daa610220840152803561024084015201356102608201527f22c353cc3bc285b04574fb779b589122e8a709f8d0042e5ec07f94cf508f440a6102808201527f1cbbfac099c6db8ba33b49dda210ed779ef03939877a63e4bd4769af462ffbb66102a08201527f2925de5872530a0bd798fd5fdf39cdecd1ba2040668dc0159cd2f4237997634e6102c08201527f234668f378578e377a8b818f8a23b74f49840f63a0915efd2b33964a7c14a93c6102e08201526020816103008160086107d05a03fa90511690565b9161066593916106136100e7565b5060405193610380850160405261062c5f8501356100eb565b61063960208501356100eb565b61064660408501356100eb565b61065360608501356100eb565b61066060808501356100eb565b610177565b5f5260205ff3fea264697066735822122060e3524ba740d923ff6dceaf57662ebdb9f70cec75e95b86f5b6efbb786be9f664736f6c634300081e0033","linkReferences":{}},"methodIdentifiers":{"verifyProof(uint256[2],uint256[2][2],uint256[2],uint256[5])":"34baeab9"},"id":47}